:100000000C943B040C9463040C9463040C946304FC
:100010000C9463040C9463040C9463040C946304C4
:100020000C9463040C9463040C94110B0C94800BDB
:100030000C9463040C9463040C9463040C946304A4
:100040000C9463040C9463040C9463040C94630494
:100050000C9463040C9463040C9463040C94C70A1A
:100060000C9463040C9463040C9463040C94630474
:100070000C9463040C9463040C9463040C94630464
:100080000C9463040C9463040C9463040C94630454
:100090000C9463040C9463040C9463040C94630444
:1000A0000C9463040C9463040C946304000000003B
:1000B000003E5B4F5B3E3E6B4F6B3E1C3E7C3E1CEE
:1000C000183C7E3C181C577D571C1C5E7F5E1C0034
:1000D000183C1800FFE7C3E7FF0018241800FFE7EB
:1000E000DBE7FF30483A060E2629792926407F05AE
:1000F0000507407F05253F5A3CE73C5A7F3E1C1CC4
:1001000008081C1C3E7F14227F22145F5F005F5F83
:1001100006097F017F006689956A6060606060946F
:10012000A2FFA29408047E040810207E2010080874
:100130002A1C08081C2A08081E101010100C1E0C7F
:100140001E0C30383E3830060E3E0E060000000011
:100150000000005F00000007000700147F147F14F8
:10016000242A7F2A1223130864623649562050003D
:1001700008070300001C2241000041221C002A1C29
:100180007F1C2A08083E0808008070300008080814
:100190000808000060600020100804023E51494534
:1001A0003E00427F400072494949462141494D3352
:1001B0001814127F1027454545393C4A49493141B9
:1001C000211109073649494936464949291E000087
:1001D00014000000403400000008142241141414DC
:1001E0001414004122140802015909063E415D59C8
:1001F0004E7C1211127C7F494949363E41414122D1
:100200007F4141413E7F494949417F090909013EFA
:10021000414151737F0808087F00417F4100204021
:10022000413F017F081422417F404040407F021C33
:10023000027F7F0408107F3E4141413E7F0909094A
:10024000063E4151215E7F09192946264949493216
:1002500003017F01033F4040403F1F2040201F3FDC
:100260004038403F63140814630304780403615961
:10027000494D43007F4141410204081020004141A3
:10028000417F04020102044040404040000307084F
:100290000020545478407F2844443838444444284B
:1002A000384444287F385454541800087E090218F2
:1002B000A4A49C787F0804047800447D400020407A
:1002C000403D007F1028440000417F40007C0478BE
:1002D00004787C080404783844444438FC18242406
:1002E0001818242418FC7C08040408485454542486
:1002F00004043F44243C4040207C1C2040201C3C03
:100300004030403C44281028444C9090907C4464F9
:10031000544C44000836410000007700000041368C
:10032000080002010204023C2623263C1EA1A16112
:10033000123A4040207A3854545559215555794144
:100340002154547841215554784020545579400C1B
:100350001E527212395555555939545454593955FC
:100360005454580000457C410002457D420001453F
:100370007C40F0292429F0F0282528F07C545545AC
:10038000002054547C547C0A097F4932494949323F
:100390003248484832324A4848303A4141217A3A54
:1003A00042402078009DA0A07D39444444393D401E
:1003B00040403D3C24FF2424487E4943662B2FFCCB
:1003C0002F2BFF0929F620C0887E09032054547979
:1003D000410000447D413048484A32384040227A4A
:1003E000007A0A0A727D0D19317D2629292F2826C7
:1003F0002929292630484D402038080808080808CF
:100400000808382F10C8ACBA2F102834FA00007B27
:10041000000008142A142222142A1408950022002D
:1004200095AA005500AAAA55AA55AA000000FF00E7
:10043000101010FF00141414FF001010FF00FF1024
:1004400010F010F0141414FC001414F700FF000056
:10045000FF00FF1414F404FC141417101F10101FD5
:10046000101F1414141F00101010F0000000001FC3
:10047000101010101F10101010F010000000FF10CE
:100480001010101010101010FF10000000FF1400CA
:1004900000FF00FF00001F10170000FC04F41414FC
:1004A0001710171414F404F40000FF00F7141414C8
:1004B00014141414F700F7141414171410101F1048
:1004C0001F141414F4141010F010F000001F101F6B
:1004D0000000001F14000000FC140000F010F010D9
:1004E00010FF10FF141414FF141010101F00000050
:1004F00000F010FFFFFFFFFFF0F0F0F0F0FFFFFF54
:100500000000000000FFFF0F0F0F0F0F38444438AA
:10051000447C2A2A3E147E02020606027E027E02E5
:1005200063554941633844443C04407E201E200604
:10053000027E020299A5E7A5991C2A492A1C4C7241
:1005400001724C304A4D4D303048784830BC625AC8
:10055000463D3E494949007E0101017E2A2A2A2A58
:100560002A44445F444440514A444040444A514034
:100570000000FF0103E080FF000008086B6B0836F5
:1005800012362436060F090F060000181800000066
:100590001010003040FF0101001F01011E00191D55
:1005A0001712003C3C3C3C0000000000080B00021D
:1005B00002020000090400000102020000052400FC
:1005C000100105240101010424020605240600018E
:1005D0000705810310004009040100020A00000021
:1005E00007050202400000070583024000000403E3
:1005F000090412010002EF0201404123368000018C
:100600000102030141726475696E6F204C4C430016
:1006100041726475626F7900F0F89C8E8783878ED3
:100620009CF8F00000FEFF0303030303070EFCF831
:100630000000FEFF0303030303070EFCF80000FFA6
:10064000FF00000000000000FFFF0000FEFF8383AA
:10065000838383C7EE7C380000F8FC0E0703030396
:10066000070EFCF800003F7FE0C08080C0E07F3FC5
:10067000FFFF01010101010101FFFF0000FFFF0C6D
:100680000C0C0C1C3E77E3C100007FFFC0C0C0C053
:10069000C0E0703F1F00001F3F70E0C0C0C0E070AE
:1006A0003F1F00007FFFC1C1C1C1C1E3773E1C00F5
:1006B000001F3F70E0C0C0C0E0703F1F000000009E
:1006C0000001FFFF01000000D5F08D14A1C881CF0B
:1006D000D9F1AF20004F4646004F4E00000038FCD5
:1006E000F2FA7E7B3F3F3B33333B3F7FFFFFFFFF11
:1006F000FBFEFCF8E88898F0000000000010FFFF07
:10070000E10000C0E02030FCF8F8F0F03031E1C149
:10071000870F3FFFFFFFFFF1000000000080FDFF9B
:10072000FFF8E0E7DFBFFFFFFFEBFFFFFFFF3F0347
:1007300080C0C0C79F3FFFFFF0800000C0F3F7EF0D
:10074000DF3FBFDFDFEFEFC7C7C7C7E787903C7F5B
:10075000FFFFFFFF7FBE80CFE3F9F8C00103030373
:10076000030303030303030303030303030303025A
:1007700002020202020303030303030320202042B8
:100780003D4F4646004C2D636C69636B3A20000078
:10079000000000000000002A2B28000000000000DC
:1007A0000000000000000000000000000000002C1D
:1007B0009EB4A0A1A2A434A6A7A5AE362D37382793
:1007C0001E1F20212223242526B333B62EB7B89F1F
:1007D0008485868788898A8B8C8D8E8F9091929361
:1007E0009495969798999A9B9C9D2F3130A3AD35FF
:1007F0000405060708090A0B0C0D0E0F1011121341
:100800001415161718191A1B1C1DAFB1B0B5000529
:10081000010906A1018502050719E029E715002550
:10082000017501950881029501750881039506758A
:1008300008150025730507190029738100C00501FB
:100840000902A1010901A100850105091901290376
:100850001500250195037501810295017505810338
:1008600005010930093109381581257F750895037F
:100870008106C0C0E50D11241FBECFEFDAE0DEBF58
:10088000CDBF11E0A0E0B1E0E6ECF2E202C00590DD
:100890000D92AA34B107D9F726E0AAE4B1E001C06D
:1008A0001D92AF30B207E1F714E0CBE3D4E004C00F
:1008B0002197FE010E945B11CA33D107C9F70E943C
:1008C0008D0E0C9461110C9400006F927F928F92A8
:1008D0009F92AF92BF92CF92DF92EF92FF920F93CF
:1008E0001F93CF93DF93FB01E00FF11D1E161F0630
:1008F0000CF08DC0603471050CF089C0DB0177FF0E
:1009000004C0AA27BB27A61BB70BA770BB27FB01F8
:1009100077FD3796C3E0F595E795CA95E1F777FF40
:1009200007C0319768E070E0EB01CA1BDB0BDE010A
:10093000A02EA694A694A694B12C077019F0DFEF10
:10094000AD1ABD0A30E0BF01EA01AF015695542F40
:10095000442757954795480F591F40575E4FA60E9D
:10096000B71E00E810E0081B190B88E090E04C016E
:100970008A1A9B0A6F3FEFEF7E070CF43BC090E0B2
:1009800080E07A01F0E8EF0EF11C6F3F760709F482
:100990004DC0FC01EC0FFD1FE4916A01C80ED91E89
:1009A000F0E03F010A2E01C0660C0A94EAF7F60156
:1009B0007080672860821097B1F06730710599F0F8
:1009C000FE01E80FF91FE4916701C80ED91EF0E09F
:1009D0003F01082C02C0759467940A94E2F7F6016F
:1009E0007080672860820196821793071CF40817AD
:1009F000190759F66F5F7F4FC20FD31F40585F4FE3
:100A0000A616B70621F06830710509F0B3CFDF9163
:100A1000CF911F910F91FF90EF90DF90CF90BF90FB
:100A2000AF909F908F907F906F900895109741F6B0
:100A3000DACFE0E9F1E0A0E0B8E000800EBC81117F
:100A4000012C1197A0FDFDCF0192B9F70DB40895C7
:100A5000FC0180918F01882311F13FB7F89482E067
:100A60008093E9002091F200822F90E01816190679
:100A700014F481E090E0882339F0289844E640930C
:100A80008E014091F1004083222339F02091F20041
:100A9000211103C02BE62093E8003FBF08958FEF9C
:100AA0009FEF0895CF93DF931F92CDB7DEB7698391
:100AB000DC01ED91FC910280F381E02D41E050E0FA
:100AC000BE016F5F7F4F09950F90DF91CF91089521
:100AD00083E08093E9008091F200882319F08AE393
:100AE0008093E8000895CF93DF931F92CDB7DEB7D0
:100AF000FC018485958597FD08C02FEF3FEF358772
:100B000024870F90DF91CF910895CE0101960E9426
:100B10002805019719F4898190E0F3CF8FEF9FEFBB
:100B2000F0CF0F931F93CF93DF931F92CDB7DEB714
:100B30008C01FC018485958597FF0BC0CE01019641
:100B40000E942805019771F4898190E0F80195874A
:100B50008487F801848595850F90DF91CF911F914F
:100B60000F9108958FEF9FEFF1CFFC01848595855C
:100B700097FD0BC09FB7F89482E08093E9008091C5
:100B8000F2009FBF90E0019608959FB7F89482E02D
:100B90008093E9008091F2009FBF90E008953FB7F5
:100BA000F89480918A0190918B01A0918C01B09171
:100BB0008D0126B5A89B05C02F3F19F00196A11DF8
:100BC000B11D3FBFBA2FA92F982F8827BC01CD0197
:100BD000620F711D811D911D42E0660F771F881FF6
:100BE000991F4A95D1F708958F929F92AF92BF9225
:100BF000CF92DF92EF92FF926B017C010E94CF05B2
:100C00004B015C01C114D104E104F104B9F00E946C
:100C1000CF05681979098A099B09683E73408105E7
:100C2000910580F321E0C21AD108E108F10888EEAD
:100C3000880E83E0981EA11CB11CE4CFFF90EF90BA
:100C4000DF90CF90BF90AF909F908F90089540918C
:100C500071015091720120916F0130917001421722
:100C60005307B4F49091E8009570E1F39091E80097
:100C700092FD19C08093F1008091710190917201F1
:100C800001968F739927892B19F48EEF8093E800D2
:100C900080917101909172010196909372018093FD
:100CA000710181E0089580E00895DF92EF92FF9254
:100CB0000F931F93CF93DF93D82E8A01EB017B0113
:100CC000E40EF51ECE15DF0559F0D7FE12C0FE0169
:100CD00084910E94270621968111F4CF0FEF1FEF18
:100CE000C801DF91CF911F910F91FF90EF90DF909E
:100CF00008958881EECF2FB7F89487708093E9002C
:100D00009091E800892F807295FF04C09091F200C5
:100D100080E4891B2FBF089583E00E947B0690E04A
:100D200008957F928F929F92AF92BF92CF92DF925F
:100D3000EF92FF920F931F93CF93DF93C82E8B01F7
:100D40007A0180918F01811110C08FEF9FEFDF91A9
:100D5000CF911F910F91FF90EF90DF90CF90BF90B8
:100D6000AF909F908F907F9008958091750180FF44
:100D700005C08091E00082608093E000CE2DDF2DE1
:100D8000D12C8AEFB82E8C2D8770982E8C2D8072E6
:100D9000882E8C2D8074782E9AE3A92E209719F432
:100DA000DD2009F452C08C2D0E947B0681110AC0FF
:100DB000BA94BB2051F261E070E080E090E00E94C4
:100DC000F405ECCF8C171D0611F00CF08C2F9FB79B
:100DD000F8949092E9002091E80025FD02C09FBFA1
:100DE000DDCF282F30E0C21BD30B882029F08150A3
:100DF000A0F01092F100FBCFF801C7FC0AC08150AF
:100E000050F041914093F100FACF44914093F100AA
:100E100031968150D0F7020F131FDD2021F0A092F0
:100E2000E800D12CDCCF8091E80085FD07C0A092BE
:100E3000E800DD24D394209791F2F3CF209779F640
:100E4000772069F2A092E800CACF5D9884E680938B
:100E50007401C7017CCFCF93DF93EC018091130124
:100E6000882331F083E00E9491061816190634F0A9
:100E700081E090E09B838A8380E090E0DF91CF91D6
:100E80000895615030F02091F100FC01208301961B
:100E9000F8CF289884E680938E010895AF92BF9290
:100EA000CF92DF92EF92FF920F931F93CF93DF9336
:100EB0006C017B018B01040F151FEB015E01AE1865
:100EC000BF08C017D10759F06991D601ED91FC9187
:100ED0000190F081E02DC6010995892B79F7C501B4
:100EE000DF91CF911F910F91FF90EF90DF90CF9006
:100EF000BF90AF9008958091670181110DC082E08D
:100F00008093630184E080936401109266011092E3
:100F1000650181E08093670183E691E008950F9376
:100F20001F93CF93DF931F92CDB7DEB782E0898303
:100F300042E450E06CEA75E080E80E9455060E94A9
:100F40007B07DC0112960D911C910115110589F0AA
:100F5000D801ED91FC910280F381E02DBE016F5F1D
:100F60007F4FC801099597FD04C0F80100851185E0
:100F7000ECCF89810F90DF91CF911F910F91089550
:100F8000CF92DF92EF92FF920F931F93CF93DF9355
:100F90006C01EB017B01E40EF51E10E000E0CE15C4
:100FA000DF0581F069916D30D1F3D601ED91FC91AF
:100FB0000190F081E02DC6010995892B19F00F5F92
:100FC0001F4FEDCFC801DF91CF911F910F91FF907F
:100FD000EF90DF90CF900895DC01FB0112962C91E9
:100FE0001297848195812817190641F49181808197
:100FF000813A31F49D7F81E0913009F080E00895DD
:101000008132E1F79B3029F482811F968C9381E035
:1010100008959A3099F7828150968C93F8CFAF92C9
:10102000BF92CF92DF92EF92FF920F931F93CF93D5
:10103000DF931F92CDB7DEB77C0169836A01590146
:1010400041E050E0BE016F5F7F4FFC0183810E9451
:1010500091068C0197FD0BC0F7018381A501B601B4
:1010600080640E949106080F191F97FD8C01C8012A
:101070000F90DF91CF911F910F91FF90EF90DF9034
:10108000CF90BF90AF900895DC01FB0188E480838E
:1010900089E4818384E482831D969C911D979F70CF
:1010A0009F5B93831D968D919C9124E096958795E7
:1010B0002A95E1F78F708F5B848385E00895EF9226
:1010C000FF920F931F93CF93DF93FB012081213871
:1010D00071F52381223259F5DC0112964C9124815D
:1010E00035814217130619F5EC010B851C85F12C8F
:1010F000E12C0115110589F0F801448155816281C7
:10110000738180E80E9455068F3F980749F0E80EEA
:10111000F91ED8010D911C91ECCF81E08F87C7019A
:10112000DF91CF911F910F91FF90EF90089590E084
:1011300080E0F6CFCF93DF93CDB7DEB769970FB6D8
:10114000F894DEBF0FBECDBFFC01DB018C918F5F39
:101150008C939E012D5F3F4F8DE0D9011D928A95A2
:10116000E9F729E0298384E08A8391E09D8383E085
:101170008E832A8721E22B879C879D879F8722E287
:10118000288B27E02B8B25E02C8B8E8B20E430E006
:10119000388F2F8B998F82818B8395858685998B4C
:1011A0008A8B838180688D8B49E150E0BE016F5F3F
:1011B0007F4F80E00E94550669960FB6F894DEBF17
:1011C0000FBECDBFDF91CF910895CF93DF93809174
:1011D0005B01811167C081E080934E0180934F01D4
:1011E00024E531E0309351012093500110925301D6
:1011F0001092520128E131E030934B0120934A01D3
:1012000010925601109255011092580110925701F8
:101210008093590180935A0181EC809354010E947C
:101220007B07FC01818190914E01482F490F552782
:10123000551F483051059CF5A281B381109709F5DF
:101240002AE431E033832283208120934C01809370
:101250004D0180914F01820F808320915001A22F78
:10126000B09151018A2F821B8917C8F481813D9169
:10127000C82FD0E0C050DF4F38838F5F8183F2CF1B
:10128000D90118962D913C91199721153105C1F777
:101290002AE431E019963C932E931897D5CF81E03C
:1012A00080935B018AE491E0DF91CF910895EF9202
:1012B000FF921F93CF93DF93EC01162FE8E7E60F21
:1012C000683888F4862F90E067FF5CC0FC01E05826
:1012D000F10921E030E001C0220FEA95EAF78C81A4
:1012E000822B8C83E0E08E818E17D9F08F81E817F6
:1012F000C1F08885E817A9F08985E81791F08A85FB
:10130000E81779F08B85E81761F0DE01169690E01A
:1013100080E02D9121116AC08C0F9D1FDC01169673
:10132000EC930E94E50828E030E0AE014C5F5F4F8F
:1013300062E00E940F08EE24E394F12C183878F153
:101340001858DE0186E0112341F016969C911697FD
:10135000191303C016961C9216978150119681118D
:10136000F2CF0E94E508AE014C5F5F4F28E030E00D
:1013700062E00E940F08C701DF91CF911F91FF909B
:10138000EF900895EC85FD85E80FF91FE491E111D8
:1013900019C081E090E09B838A83F12CE12C812F9E
:1013A00090E017FF2FC0FC01E058F10981E090E0C8
:1013B00001C0880FEA95EAF780959C8189238C8388
:1013C00010E0BFCF8E2F807C803C49F48C818064FC
:1013D0008C83EF73E23309F086CFE4E684CFE7FF36
:1013E000F9CF8C8182608C83EF77F4CF01968630C1
:1013F000910509F08ECF81E090E09B838A83F12CE8
:10140000E12C9CCFEC85FD85E80FF91F1491112389
:1014100009F4B1CF812F807C803C49F48C818F7B93
:101420008C831F73123309F08CCF14E68ACF17FF19
:10143000F9CF8C818D7F8C831F77F4CF2D9A0895FF
:10144000BC0190E080E00C94F4058FB18095807F22
:10145000669B88601C9B84600895AF92BF92CF9278
:10146000DF92EF92FF920F931F93CF93DF936D3034
:1014700079F0C0917E01D0917F016A30B1F4109271
:101480007D0110927C012896D0937F01C0937E014C
:1014900081E090E0DF91CF911F910F91FF90EF904D
:1014A000DF90CF90BF90AF90089540917C01509114
:1014B0007D0185E0689FF0011124E455FF4F9A01FA
:1014C000C12C80E1E82EA5E070E0CA1621F0CF0122
:1014D00001967491FC0110E000E0B72FB170DB2E93
:1014E00020383105D0F4CE01800F911F8034910552
:1014F000A0F461E081FD64E080FD660F82FD6295ED
:10150000887FE89ED0011124A20FF62EA057BE4F6F
:101510008C91DD20A9F0862B8C9376950F5F1F4F61
:1015200008301105D1F6C3942F5F3F4F86E0C812F3
:10153000CACF4A5F5F4F50937D0140937C01A8CF93
:10154000F0948F21E9CF0F931F93CF93DF938C01FA
:10155000D0E0C0E0F801EC0FFD1F6491662341F07C
:101560008BE096E00E942D0A892B11F02196F2CF94
:10157000CE01DF91CF911F910F91089580E00C94DF
:101580001905089590E080E008950C9445111F928C
:101590000F920FB60F9211242F933F938F939F9327
:1015A000AF93BF938091860190918701A0918801AC
:1015B000B09189013091850123E0230F2D3758F533
:1015C0000196A11DB11D2093850180938601909302
:1015D0008701A0938801B093890180918A0190913D
:1015E0008B01A0918C01B0918D010196A11DB11DBF
:1015F00080938A0190938B01A0938C01B0938D010D
:10160000BF91AF919F918F913F912F910F900FBEFE
:101610000F901F90189526E8230F0296A11DB11D6B
:10162000D2CF1F920F920FB60F9211248F939F93D8
:101630008091E1009091E100937F9093E10083FF1E
:101640000FC01092E90091E09093EB001092EC0033
:1016500092E39093ED0010928F0198E09093F00048
:1016600082FF22C093E09093E9009091F2009923C9
:1016700019F09AE39093E80090917401992341F056
:1016800090917401915090937401911101C05D9AF1
:1016900090918E01992341F090918E0191509093F9
:1016A0008E01911101C0289A84FF18C08091E20038
:1016B0008E7E81608093E2008091E1008F7E809336
:1016C000E100809175018E7E8061809375019F910C
:1016D0008F910F900FBE0F901F90189580FFF7CF3E
:1016E0008091E2008E7E80618093E2008091E10033
:1016F0008E7E8093E100809175018E7E8160E5CFC2
:101700001F920F920FB60F921124CF92DF92EF9299
:10171000FF920F931F932F933F934F935F936F937A
:101720007F938F939F93AF93BF93EF93FF93CF9349
:10173000DF93CDB7DEB76C97DEBFCDBF1092E90067
:101740008091E80083FF25C068E0CE0145960E94A5
:10175000410782EF8093E8008D8987FF39C090911F
:10176000E80090FFFCCF982F907609F034C19E8955
:101770004F89588D2F89F88C911131C0803861F5CF
:10178000809176018093F1001092F1008EEF8093AA
:10179000E8006C960FB6F894DEBF0FBECDBFDF91A8
:1017A000CF91FF91EF91BF91AF919F918F917F91D9
:1017B0006F915F914F913F912F911F910F91FF90EA
:1017C000EF90DF90CF900F900FBE0F901F90189565
:1017D0009EEF9093E800C7CF1092F100D5CF9130E3
:1017E00059F48111D3CF4130510581F680917601B2
:1017F0008D7F80937601CACF933049F48111C6CF93
:101800004130510519F6809176018260F2CF953012
:1018100041F48091E80080FFFCCF20682093E30032
:10182000B5CF963009F0A9C00B8D1C8D22E0109227
:10183000E9001092720110927101F2122EC0109202
:10184000700110926F010E948F071F8299E09983A7
:10185000FA8291E09E8390EA98879AEF9987209187
:10186000710130917201275F3F4F3C832B838D8341
:101870001092E900109272011092710110937001A0
:1018800000936F0149E050E0BE016F5F7F4F80E041
:101890000E9455060E948F0779CF10937001009324
:1018A0006F010E947B07DC0112960D911C910115BE
:1018B000110509F451C1D801ED91FC910480F58125
:1018C000E02DBE016B5E7F4FC8010995009709F0BE
:1018D0003EC1F80100851185EACFF3E0FF120EC08A
:1018E0008F89882309F440C0823061F440E867E0C2
:1018F00080E196E00E94B20D811148CF81E2809391
:10190000EB0047CF813029F440E86BE084E096E0BB
:10191000F1CF833099F70E947B07DC011296ED909E
:10192000FC908E010F5F1F4F6801E114F10479F004
:10193000D701ED91FC910680F781E02DB801C70138
:101940000995080F111DF701E084F184EECFD8014D
:101950001C92F60101900020E9F73197BF016C1944
:101960007D0940E0C601C6CF6EEE75E0FB014491F3
:1019700050E080E80E94550609CF973009F4BECFA9
:10198000983021F481E08093F10000CF993009F084
:10199000FDCE837009F0B2CFE1E0F1E081E031E00B
:1019A00096E32191222371F08093E9003093EB00BC
:1019B000DF0111972C912093EC009093ED008F5F45
:1019C000873079F78EE78093EA001092EA008F89DA
:1019D00080938F01DBCE8B8D9C8D1092E90010924D
:1019E0007201109271019093700180936F01898D43
:1019F000811192C08E899D89913A49F4813209F012
:101A00007DCF47E050E06CE071E080E0B3CF9132F1
:101A100009F074CF833269F48F89988DB0E0A0E02B
:101A20008093070190930801A0930901B0930A01E4
:101A3000ADCE803269F48091E80082FFFCCF67E090
:101A40008CE091E00E9441078BEF8093E8009ECEEE
:101A5000823209F09BCE8F8980931301EEEFFFE76E
:101A6000859194918B3F9C4D51F1E0E0F8E080919D
:101A70000C0190910D01A0910E01B0910F01803BDE
:101A80009440A105B105F1F48091130180FD1AC0C5
:101A9000EE3F8AE0F80789F587E797E7918380832F
:101AA000809160008093730188E19BE00FB6F89409
:101AB000A895809360000FBE9093600067CEEEEF14
:101AC000FAE0D5CF808191818737974709F05ECEC4
:101AD000A895809160008861809360008091730177
:101AE00080936000EE3F2AE0F20789F08091FE0AC1
:101AF0009091FF0A9183808349CE808191818737BD
:101B0000980751F29093FF0A8093FE0AC5CF109276
:101B1000FF0A1092FE0A3ACE0E947B07DC01129661
:101B20000D911C910115110509F4E8CED801ED9134
:101B3000FC910190F081E02DBE016B5E7F4FC801EA
:101B40000995811123CEF80100851185EBCF181678
:101B500019060CF41BCED2CEF1E0FF12BECE62EF1E
:101B600075E004CFEF92FF920F931F93CF93DF9313
:101B7000F82E192FE62E042F81E0860F880F0E9481
:101B8000270683E00E942706CF2DD12FEC0EFD2ED5
:101B9000F11CCE15DF05B9F007FF13C0FE018491DB
:101BA0000E942706182F80E00E9427068123219695
:101BB0008111EFCFDF91CF911F910F91FF90EF90A7
:101BC00008958881EDCF81E0F5CF109293051092B2
:101BD000920588EE93E0A0E0B0E0809394059093A6
:101BE0009505A0939605B093970584E291E09093B4
:101BF0009105809390058FEF9FEF90939D058093C3
:101C00009C051092F1051092F00586E391E0909307
:101C1000EF058093EE058091E605811113C01092C7
:101C2000E1051092E0058FE098E09093E305809342
:101C3000E2058FE290E09093E5058093E40581E072
:101C40008093E6050E94E508FC01A385B485109702
:101C500009F04EC080EE95E0948783878585968550
:101C60002091E4053091E505820F931F96878587C3
:101C70008FE897E09093FB058093FA0510920A068F
:101C800080910206811113C01092FD051092FC058F
:101C90008EE398E09093FF058093FE0586E390E045
:101CA000909301068093000681E0809302060E94D3
:101CB000E508FC01A385B485109729F58CEF95E024
:101CC000948783878585968520910006309101064B
:101CD000820F931F9687858710920E0610920D062D
:101CE00082E491E090930C0680930B060895DC014A
:101CF0008D919C9111970097D1F780EE95E08D938F
:101D00009C93ACCFDC018D919C9111970097D1F7FA
:101D10008CEF95E08D939C93D5CFCF93DF9300D03C
:101D200000D0CDB7DEB7789484B5826084BD84B529
:101D3000816084BD85B5826085BD85B5816085BDC6
:101D400080916E00816080936E001092810080917E
:101D50008100826080938100809181008160809306
:101D6000810080918000816080938000809191004B
:101D700082608093910080919100816080939100B6
:101D8000809190008160809390008091C100846078
:101D90008093C1008091C10082608093C1008091D6
:101DA000C10081608093C1008091C30081608093F5
:101DB000C3008091C00082608093C0008091C20007
:101DC00081608093C20080917A00846080937A0061
:101DD00080917A00826080937A0080917A0081609D
:101DE00080937A0080917A00806880937A001092C4
:101DF0008F0110927601109275018091D700816059
:101E00008093D70080EA8093D80089B5806189BD2E
:101E100089B5826089BD09B400FEFDCF61E070E044
:101E200080E090E00E94F4058091D8008F7C806172
:101E30008093D8008091E000807F8093E0008091C3
:101E4000E1008E7E8093E1008DE08093E200559A60
:101E5000209A81EC80937C0085B1806F85B984B134
:101E6000877E84B984B1876E84B95E9A5F988AB19F
:101E7000806D8AB9769A6E9881B3806F81BB89989C
:101E800080B38D7080BB80E58CBD81E08DBD85E029
:101E900090E00E94200A5F9A85E090E00E94200A6C
:101EA0005E985C98E8ECF6E085ED96E024912EBD16
:101EB00000000DB407FEFDCF31968E179F07B1F7D6
:101EC0005C9A81E8809364008091650081608093D2
:101ED00065000E94BE0A0E94250A87FF15C05C9813
:101EE00085EA8EBD00000DB407FEFDCF5C9A2E98EA
:101EF0002F982D988091640080628093640081E027
:101F000083BF889513BEFCCF0E94250A82FF48C07C
:101F10002D980E94250A84788438E1F40E941E0AD4
:101F200088EC90E00E94200A2F9882E090E00E94C6
:101F300045118F3F29F06FEF82E090E00E944D1134
:101F400084EF91E00E94200A2F9A0E94250A84784B
:101F50008438D9F30E94250A84718431E1F40E9407
:101F60001E0A88EC90E00E94200A2E9882E090E001
:101F70000E944511882329F060E082E090E00E94F1
:101F80004D1184EF91E00E94200A2E9A0E94250AAA
:101F900084718431D9F388EC90E00E94200AB4CF98
:101FA0000E941E0A82E090E00E94C50A882309F47C
:101FB0004CC03E9A3F9A81E090E00E94C50A182FDB
:101FC000147081FF0EC011112E9821EFE22EFF2414
:101FD000FA940E94250A86FF3BC02E9A2F9A0E94EF
:101FE0001E0A82E390E00E94200A0E94250A8111C5
:101FF000F8CF80E180930B018FE897E09093FB0589
:102000008093FA05BB24B39480E9C82E81E0D82ED2
:1020100090E0E92E90E0F92E11E08FB7F89440910E
:1020200086015091870160918801709189018FBF6D
:1020300080917901882309F468C010927901E11434
:10204000F10459F30E940000E8CF3E983F98B3CFC7
:10205000112331F024E0E216F10411F42E9A2F98A6
:1020600081E00E94190500E128E548E156E0B7014A
:1020700084E190E00E9465040E94BE0A8FE090E037
:102080000E94200A3FEFE31AF30A49E1E416F10443
:1020900009F09FCF112311F02F9A2D9880E991E03C
:1020A0000E94200A0E941E0A81E090E00E94C50A58
:1020B00080FF97CF8AE090E00E94C50A9FEF980FBB
:1020C0009E3F08F08ECF22E330E030937D012093D5
:1020D0007C0128E330E030937F0120937E010BE008
:1020E00010E0682F8BE096E00E942D0AC8010E9444
:1020F000C50A0F5F1F4F0131110599F70E94BE0AF3
:1021000088EE93E00E94200A6CCF90917A01242FF0
:10211000291B922F20910B01921740F49F5F921779
:1021200008F08DCFB3BE889513BE89CF1093790187
:1021300040937A0120917701309178012F5F3F4FD2
:102140003093780120937701F60181118FEF0024FD
:1021500081938193819381930394D1F710927F01AE
:1021600010927E0110927D0110927C010E94250A3E
:1021700080937B010E94250A83FF0EC08091840119
:1021800081110AC010938401109280011092810184
:1021900010928201109283010E94250A82FD109202
:1021A000840180918401882309F447C08FB7F89493
:1021B000409086015090870160908801709089015D
:1021C0008FBF8091800190918101A0918201B09197
:1021D0008301A3019201281B390B4A0B5B0BDA0127
:1021E000C901C297A105B10540F110930A061983F0
:1021F0001A821B821C820E94E50824E030E0AE01B6
:102200004F5F5F4F61E00E940F0810920A0619822B
:102210001A821B821C820E94E50824E030E0AE0195
:102220004F5F5F4F61E00E940F0840928001509223
:102230008101609282017092830110927D0110925F
:102240007C0110927F0110927E0185E897E00E9448
:10225000A30A80918401811115C085ED96E00E944A
:10226000A30A8CE797E00E94A30A02E220E24CED69
:1022700056E06CE070E080E390E00E9465040E940C
:10228000BE0ADDCE89ED96E0EACFF999FECF92BD88
:1022900081BDF89A992780B50895262FF999FECF28
:1022A0001FBA92BD81BD20BD0FB6F894FA9AF99A73
:1022B0000FBE01960895EE0FFF1F0590F491E02DDB
:0622C0000994F894FFCF21
:1022C60000C18081000000FFFFFFFF1000E1000059
:1022D6000000000000000000EC079A085F084408B0
:1022E6000000000052052B078C066805B50573052E
:1022F6009105000000005709C007C20AC10A000084
:0A23060000002D0A4E07C20AC10AAA
:00000001FF
