:100000000C94B0030C94D8030C94D8030C94D8032C
:100010000C94D8030C94D8030C94D8030C94D803F4
:100020000C94D8030C94D8030C949B080C940A09E4
:100030000C94D8030C94D8030C94D8030C94D803D4
:100040000C94D8030C94D8030C94D8030C94D803C4
:100050000C94D8030C94D8030C94D8030C943C0B48
:100060000C94D8030C94D8030C94D8030C94D803A4
:100070000C94D8030C94D8030C94D8030C94D80394
:100080000C94D8030C94D8030C94D8030C94D80384
:100090000C94D8030C94D8030C94D8030C94D80374
:1000A0000C94D8030C94D8030C94D80300000000DF
:1000B000003E5B4F5B3E3E6B4F6B3E1C3E7C3E1CEE
:1000C000183C7E3C181C577D571C1C5E7F5E1C0034
:1000D000183C1800FFE7C3E7FF0018241800FFE7EB
:1000E000DBE7FF30483A060E2629792926407F05AE
:1000F0000507407F05253F5A3CE73C5A7F3E1C1CC4
:1001000008081C1C3E7F14227F22145F5F005F5F83
:1001100006097F017F006689956A6060606060946F
:10012000A2FFA29408047E040810207E2010080874
:100130002A1C08081C2A08081E101010100C1E0C7F
:100140001E0C30383E3830060E3E0E060000000011
:100150000000005F00000007000700147F147F14F8
:10016000242A7F2A1223130864623649562050003D
:1001700008070300001C2241000041221C002A1C29
:100180007F1C2A08083E0808008070300008080814
:100190000808000060600020100804023E51494534
:1001A0003E00427F400072494949462141494D3352
:1001B0001814127F1027454545393C4A49493141B9
:1001C000211109073649494936464949291E000087
:1001D00014000000403400000008142241141414DC
:1001E0001414004122140802015909063E415D59C8
:1001F0004E7C1211127C7F494949363E41414122D1
:100200007F4141413E7F494949417F090909013EFA
:10021000414151737F0808087F00417F4100204021
:10022000413F017F081422417F404040407F021C33
:10023000027F7F0408107F3E4141413E7F0909094A
:10024000063E4151215E7F09192946264949493216
:1002500003017F01033F4040403F1F2040201F3FDC
:100260004038403F63140814630304780403615961
:10027000494D43007F4141410204081020004141A3
:10028000417F04020102044040404040000307084F
:100290000020545478407F2844443838444444284B
:1002A000384444287F385454541800087E090218F2
:1002B000A4A49C787F0804047800447D400020407A
:1002C000403D007F1028440000417F40007C0478BE
:1002D00004787C080404783844444438FC18242406
:1002E0001818242418FC7C08040408485454542486
:1002F00004043F44243C4040207C1C2040201C3C03
:100300004030403C44281028444C9090907C4464F9
:10031000544C44000836410000007700000041368C
:10032000080002010204023C2623263C1EA1A16112
:10033000123A4040207A3854545559215555794144
:100340002154547841215554784020545579400C1B
:100350001E527212395555555939545454593955FC
:100360005454580000457C410002457D420001453F
:100370007C40F0292429F0F0282528F07C545545AC
:10038000002054547C547C0A097F4932494949323F
:100390003248484832324A4848303A4141217A3A54
:1003A00042402078009DA0A07D39444444393D401E
:1003B00040403D3C24FF2424487E4943662B2FFCCB
:1003C0002F2BFF0929F620C0887E09032054547979
:1003D000410000447D413048484A32384040227A4A
:1003E000007A0A0A727D0D19317D2629292F2826C7
:1003F0002929292630484D402038080808080808CF
:100400000808382F10C8ACBA2F102834FA00007B27
:10041000000008142A142222142A1408950022002D
:1004200095AA005500AAAA55AA55AA000000FF00E7
:10043000101010FF00141414FF001010FF00FF1024
:1004400010F010F0141414FC001414F700FF000056
:10045000FF00FF1414F404FC141417101F10101FD5
:10046000101F1414141F00101010F0000000001FC3
:10047000101010101F10101010F010000000FF10CE
:100480001010101010101010FF10000000FF1400CA
:1004900000FF00FF00001F10170000FC04F41414FC
:1004A0001710171414F404F40000FF00F7141414C8
:1004B00014141414F700F7141414171410101F1048
:1004C0001F141414F4141010F010F000001F101F6B
:1004D0000000001F14000000FC140000F010F010D9
:1004E00010FF10FF141414FF141010101F00000050
:1004F00000F010FFFFFFFFFFF0F0F0F0F0FFFFFF54
:100500000000000000FFFF0F0F0F0F0F38444438AA
:10051000447C2A2A3E147E02020606027E027E02E5
:1005200063554941633844443C04407E201E200604
:10053000027E020299A5E7A5991C2A492A1C4C7241
:1005400001724C304A4D4D303048784830BC625AC8
:10055000463D3E494949007E0101017E2A2A2A2A58
:100560002A44445F444440514A444040444A514034
:100570000000FF0103E080FF000008086B6B0836F5
:1005800012362436060F090F060000181800000066
:100590001010003040FF0101001F01011E00191D55
:1005A0001712003C3C3C3C0000000000F0F89C8E20
:1005B0008783878E9CF8F00000FEFF03030303038C
:1005C000070EFCF80000FEFF0303030303070EFC05
:1005D000F80000FFFF00000000000000FFFF000027
:1005E000FEFF8383838383C7EE7C380000F8FC0E14
:1005F00007030303070EFCF800003F7FE0C0808084
:10060000C0E07F3FFFFF01010101010101FFFF0089
:1006100000FFFF0C0C0C0C1C3E77E3C100007FFFB9
:10062000C0C0C0C0C0E0703F1F00001F3F70E0C0EE
:10063000C0C0E0703F1F00007FFFC1C1C1C1C1E366
:10064000773E1C00001F3F70E0C0C0C0E0703F1F3D
:10065000000000000001FFFF01000000D5F08D1434
:10066000A1C881CFD9F1AF20000706050401000819
:100670000A0B0C0D092F004556002F3230002000C8
:100680005749534820484953544F525900464C410A
:100690005348210057495348494E472E2E2E004CAF
:1006A0004546543D486973746F727900413D5769FE
:1006B00073682020423D537769746368003E20537D
:1006C00054414E44415244203C003E204556454E44
:1006D00054203C0042616E6E65723A0047454E53AD
:1006E00048494E20494D50414354205749534800F2
:1006F000080B0002020200000904000001020200CF
:10070000000524001001052401010104240206054E
:1007100024060001070581031000400904010002BE
:100720000A0000000705020240000007058302409E
:1007300000000403090412010002EF0201404123FA
:10074000368000010102030141726475696E6F20F9
:100750004C4C430041726475626F7900B90B1F14F1
:1007600011241FBECFEFDAE0DEBFCDBF13E0A0E063
:10077000B1E0E4E3F3E302C005900D92A832B107C3
:10078000D9F728E0A8E2B3E001C01D92A937B2076B
:10079000E1F713E0CFEAD3E004C02197FE010E9405
:1007A0009517CE3AD107C9F70E94FB0B0C948D190F
:1007B0000C940000E7E6F3E0A0E0B8E000800EBC97
:1007C0008111012C1197A0FDFDCF0192B9F70DB455
:1007D0000895FC0180916603882311F13FB7F894D6
:1007E00082E08093E9002091F200822F90E01816B9
:1007F000190614F481E090E0882339F0289844E643
:10080000409365034091F1004083222339F0209109
:10081000F200211103C02BE62093E8003FBF0895AA
:100820008FEF9FEF08952FB7F89483E08093E9004E
:100830009091E800892F807295FF04C09091F2009A
:1008400080E4891B2FBF089580915D0381110DC045
:1008500082E08093590384E080935A0310925C03F2
:1008600010925B0381E080935D0389E593E0089536
:10087000CF93DF931F92CDB7DEB76983DC01ED9193
:10088000FC910280F381E02D41E050E0BE016F5FFA
:100890007F4F09950F90DF91CF91089583E080936A
:1008A000E9008091F200882319F08AE38093E80040
:1008B00008950E94130490E00895CF93DF931F9250
:1008C000CDB7DEB7FC018485958597FD08C02FEF75
:1008D0003FEF358724870F90DF91CF910895CE01A8
:1008E00001960E94E903019719F4898190E0F3CF02
:1008F0008FEF9FEFF0CF0F931F93CF93DF931F9254
:10090000CDB7DEB78C01FC018485958597FF0BC0C0
:10091000CE0101960E94E903019771F4898190E06C
:10092000F80195878487F801848595850F90DF917C
:10093000CF911F910F9108958FEF9FEFF1CFFC01A1
:100940008485958597FD0BC09FB7F89482E08093CE
:10095000E9008091F2009FBF90E0019608959FB753
:10096000F89482E08093E9008091F2009FBF90E0CC
:1009700008954091530350915403209151033091B5
:10098000520342175307B4F49091E8009570E1F3D5
:100990009091E80092FD19C08093F100809153037B
:1009A0009091540301968F739927892B19F48EEF38
:1009B0008093E800809153039091540301969093A3
:1009C00054038093530381E0089580E00895DF92FB
:1009D000EF92FF920F931F93CF93DF93D82E8A014C
:1009E000EB017B01E40EF51ECE15DF0559F0D7FEB5
:1009F00012C0FE0184910E94B90421968111F4CFA6
:100A00000FEF1FEFC801DF91CF911F910F91FF9062
:100A1000EF90DF9008958881EECF0F931F93CF93CF
:100A2000DF931F92CDB7DEB782E0898342E450E0C6
:100A300060EF76E080E80E94E7040E942404DC0175
:100A400012960D911C910115110589F0D801ED91B7
:100A5000FC910280F381E02DBE016F5F7F4FC801E2
:100A6000099597FD04C0F80100851185ECCF8981B7
:100A70000F90DF91CF911F910F910895615030F049
:100A80002091F100FC0120830196F8CF289884E69C
:100A90008093650308953FB7F89480914D0390913A
:100AA0004E03A0914F03B091500326B5A89B05C0FB
:100AB0002F3F19F00196A11DB11D3FBFBA2FA92FDD
:100AC000982F8827BC01CD01620F711D811D911DDA
:100AD00042E0660F771F881F991F4A95D1F7089546
:100AE0008F929F92AF92BF92CF92DF92EF92FF923E
:100AF0006B017C010E944B054B015C01C114D104C8
:100B0000E104F104B9F00E944B05681979098A09DA
:100B10009B09683E73408105910580F321E0C21A6C
:100B2000D108E108F10888EE880E83E0981EA11C28
:100B3000B11CE4CFFF90EF90DF90CF90BF90AF90CB
:100B40009F908F9008958F929F92AF92BF92CF9275
:100B5000DF92EF92FF920F931F93CF93DF936C017D
:100B60007B018A0180911101882309F45CC0809186
:100B70006603882309F457C08091580380FF05C09D
:100B80008091E00082608093E000E801B12C8AEF60
:100B9000A82E93E0892E2AE3922E209711F4BB20F1
:100BA000D9F10E94130481110AC0AA94AA20D9F194
:100BB00061E070E080E090E00E947005EECF8C175D
:100BC0001D0611F00CF08C2F9FB7F8948092E9006D
:100BD0002091E80025FD02C09FBFDFCF282F30E025
:100BE000C21BD30BF701815020F041914093F100DB
:100BF000FACFE20EF31EBB2021F09092E800B12C58
:100C0000EBCF8091E80085FDE7CF9092E800BB2410
:100C1000B394209709F3F3CF5D9884E6809357034C
:100C2000101611063CF081E090E0F6019383828378
:100C300010E000E0C801DF91CF911F910F91FF906C
:100C4000EF90DF90CF90BF90AF909F908F900895DE
:100C50000895AF92BF92CF92DF92EF92FF920F93DF
:100C60001F93CF93DF936C017B018B01040F151F42
:100C7000EB015E01AE18BF08C017D10759F06991AA
:100C8000D601ED91FC910190F081E02DC60109950E
:100C9000892B79F7C501DF91CF911F910F91FF90BB
:100CA000EF90DF90CF90BF90AF900895FC0144810A
:100CB00055816081718181E798E00C9429062D9A15
:100CC0000895BC0190E080E00C9470058FB1809590
:100CD000807F669B88601C9B846008959091380398
:100CE000982329F490913903982381E009F480E056
:100CF000089580E00C94DA0380389105B8F46034EC
:100D00007105A0F420E191E061FD94E060FD990F90
:100D100062FD9295687F269FD0011124A80FA959E2
:100D2000BC4F8C9140FF03C0892B8C930895909504
:100D30008923FBCF6F927F928F929F92AF92BF9247
:100D4000CF92DF92EF92FF920F931F93CF93DF9397
:100D50006C018B01CAE0D0E0F12CE12C5B0181E059
:100D6000A81AB1083B018FEF681A780A41E0B80170
:100D7000CE010E947C064E018FEF881A980A41E04E
:100D8000B501C4010E947C0641E0B801CE01029683
:100D90000E947C0641E0B301C4010E947C068FEFF3
:100DA000E81AF80A2696CE14DF0401F7DF91CF91F6
:100DB0001F910F91FF90EF90DF90CF90BF90AF9079
:100DC0009F908F907F906F900895EF92FF920F9376
:100DD0001F93CF93DF937C018B01040F111DEB0157
:100DE00077FF02C0D0E0C0E0C8010134110514F063
:100DF00080E490E0C817D9073CF441E0BE01C70188
:100E00000E947C062196F0CFDF91CF911F910F9128
:100E1000FF90EF9008958F929F92AF92BF92CF92E2
:100E2000DF92EF92FF920F931F93CF93DF936D307A
:100E300089F0C0903C03D0903D036A30D1F4109209
:100E40003B0310923A0388E0C80ED11CD0923D03B8
:100E5000C0923C0381E090E0DF91CF911F910F9110
:100E6000FF90EF90DF90CF90BF90AF909F908F90CA
:100E7000089500913A0310913B03E5E06E9FE00175
:100E80001124C455DF4F4801F12CF5E0E12CFF1689
:100E900029F0CE010196FE01E490EC01B12CA12CC9
:100EA0004E2D4170B6016A0D7B1DC4010E947C0667
:100EB000E694FFEFAF1ABF0A88E0A816B10481F7E5
:100EC000F394EFEF8E1A9E0AF6E0FF12DECF0A5F70
:100ED0001F4F10933B0300933A03BCCF0F931F9314
:100EE000CF93DF938C01D0E0C0E0F801EC0FFD1F41
:100EF0006491662341F081E798E00E940B07892BFB
:100F000011F02196F2CFCE01DF91CF911F910F9179
:100F1000089590E080E008958F929F92AF92BF92E3
:100F20000F931F93CF93DF93CDB7DEB7A1970FB683
:100F3000F894DEBF0FBECDBF19A2423008F44AE0DC
:100F40008E010F5D1F4F842E912CB12CA12CA50179
:100F500094010E944F16E62FB901CA01EA3044F508
:100F6000E05DD801EE938D01232B242B252B79F7FF
:100F700090E080E0109769F0FD0101900020E9F712
:100F80003197AF014A1B5B0BBD0181E798E00E94DE
:100F90002906A1960FB6F894DEBF0FBECDBFDF9134
:100FA000CF911F910F91BF90AF909F908F90089518
:100FB000E95CD7CFCF92DF92EF92FF92CF93DF938E
:100FC0006C01990FEE08FF08F7FE19C06DE281E78A
:100FD00098E00E940B07EC0166277727CB016C197C
:100FE0007D098E099F094AE00E948C078C0F9D1F86
:100FF000DF91CF91FF90EF90DF90CF9008954AE07E
:10100000C701B601DF91CF91FF90EF90DF90CF90B5
:101010000C948C07CF93DF93EC0188819981009722
:1010200011F00E943718198218821D821C821B82BF
:101030001A82DF91CF910895FC0180819181009700
:1010400011F00C94371808950C94D0150F931F933A
:10105000CF93DF93EC0188819981009759F02A8121
:101060003B812617370730F081E0DF91CF911F9148
:101070000F9108958B016F5F7F4F0E94C0180097FA
:1010800059F0998388831B830A832C813D81232B0C
:1010900059F7FC011082E8CF80E0E7CFEF92FF9292
:1010A0000F931F93CF93DF93EC017B018A01BA0169
:1010B0000E94260881110BC0CE010E940A08CE01B1
:1010C000DF91CF911F910F91FF90EF9008951D83B5
:1010D0000C83B701888199810E948619F0CFCF9344
:1010E000DF93EC01FB018617970749F0608171815E
:1010F0006115710541F0448155810E944E08CE0171
:10110000DF91CF9108950E940A08F9CFFC01118266
:10111000108213821282158214826115710551F0BA
:10112000FB0101900020E9F73197AF01461B570BF7
:101130000C944E0808951F920F920FB60F9211242F
:101140008F939F938091E1009091E100937F909322
:10115000E10083FF0FC01092E90091E09093EB0053
:101160001092EC0092E39093ED001092660398E0E9
:101170009093F00082FF22C093E09093E900909159
:10118000F200992319F09AE39093E80090915703A5
:10119000992341F0909157039150909357039111E7
:1011A00001C05D9A90916503992341F09091650388
:1011B000915090936503911101C0289A84FF18C043
:1011C0008091E2008E7E81608093E2008091E10058
:1011D0008F7E8093E100809158038E7E80618093A2
:1011E00058039F918F910F900FBE0F901F901895ED
:1011F00080FFF7CF8091E2008E7E80618093E200D5
:101200008091E1008E7E8093E100809158038E7E74
:101210008160E5CF1F920F920FB60F921124CF92EB
:10122000DF92EF92FF920F931F932F933F934F9371
:101230005F936F937F938F939F93AF93BF93EF933E
:10124000FF93CF93DF93CDB7DEB76C97DEBFCDBFF3
:101250001092E9008091E80083FF25C068E0CE018C
:1012600045960E943E0582EF8093E8008D8987FFB6
:1012700039C09091E80090FFFCCF982F907609F04C
:1012800034C19E894F89588D2F89F88C911131C0B6
:10129000803861F5809156038093F1001092F1003F
:1012A0008EEF8093E8006C960FB6F894DEBF0FBE09
:1012B000CDBFDF91CF91FF91EF91BF91AF919F9102
:1012C0008F917F916F915F914F913F912F911F91DE
:1012D0000F91FF90EF90DF90CF900F900FBE0F9087
:1012E0001F9018959EEF9093E800C7CF1092F100E1
:1012F000D5CF913059F48111D3CF4130510581F6CA
:10130000809156038D7F80935603CACF933049F462
:101310008111C6CF4130510519F680915603826084
:10132000F2CF953041F48091E80080FFFCCF206837
:101330002093E300B5CF963009F0A9C00B8D1C8D2A
:1013400022E01092E9001092540310925303F2121B
:101350002EC010925203109251030E940D051F825D
:1013600099E09983FA8291E09E8390EA98879AEFB8
:1013700099872091530330915403275F3F4F3C835B
:101380002B838D831092E900109254031092530323
:10139000109352030093510349E050E0BE016F5F88
:1013A0007F4F80E00E94E7040E940D0579CF1093E3
:1013B0005203009351030E942404DC0112960D9104
:1013C0001C910115110509F451C1D801ED91FC9151
:1013D0000480F581E02DBE016B5E7F4FC801099549
:1013E000009709F03EC1F80100851185EACFF3E0CE
:1013F000FF120EC08F89882309F440C0823061F447
:1014000040E867E084E597E00E94860B811148CFB1
:1014100081E28093EB0047CF813029F440E86BE014
:1014200088E497E0F1CF833099F70E942404DC012F
:101430001296ED90FC908E010F5F1F4F6801E11432
:10144000F10479F0D701ED91FC910680F781E02D50
:10145000B801C7010995080F111DF701E084F18457
:10146000EECFD8011C92F60101900020E9F73197E8
:10147000BF016C197D0940E0C601C6CF62E377E089
:10148000FB01449150E080E80E94E70409CF9730C7
:1014900009F4BECF983021F481E08093F10000CFB1
:1014A000993009F0FDCE837009F0B2CFE5E8F1E0A4
:1014B00081E031E096E32191222371F08093E900ED
:1014C0003093EB00DF0111972C912093EC00909367
:1014D000ED008F5F873079F78EE78093EA001092F6
:1014E000EA008F8980936603DBCE8B8D9C8D1092F2
:1014F000E900109254031092530390935203809387
:101500005103898D811192C08E899D89913A49F448
:10151000813209F07DCF47E050E06AE071E080E081
:10152000B3CF913209F074CF833269F48F89988DEB
:10153000B0E0A0E08093060190930701A09308011A
:10154000B0930901ADCE803269F48091E80082FF4A
:10155000FCCF67E08AE091E00E943E058BEF80932C
:10156000E8009ECE823209F09BCE8F8980931101D4
:10157000EEEFFFE7859194918B3F9C4D51F1E0E0B8
:10158000F8E080910A0190910B01A0910C01B091BB
:101590000D01803B9440A105B105F1F4809111014A
:1015A00080FD1AC0EE3F8AE0F80789F587E797E7E4
:1015B00091838083809160008093550388E19BE054
:1015C0000FB6F894A895809360000FBE90936000CA
:1015D00067CEEEEFFAE0D5CF8081918187379747CC
:1015E00009F05ECEA89580916000886180936000CC
:1015F0008091550380936000EE3F2AE0F20789F066
:101600008091FE0A9091FF0A9183808349CE808168
:1016100091818737980751F29093FF0A8093FE0AD1
:10162000C5CF1092FF0A1092FE0A3ACE0E942404FF
:10163000DC0112960D911C910115110509F4E8CEFB
:10164000D801ED91FC910190F081E02DBE016B5E1F
:101650007F4FC8010995811123CEF80100851185BE
:10166000EBCF181619060CF41BCED2CEF1E0FF1208
:10167000BECE66E377E004CF1F920F920FB60F92B3
:1016800011242F933F938F939F93AF93BF93809198
:10169000490390914A03A0914B03B0914C033091C0
:1016A000480323E0230F2D3758F50196A11DB11DE6
:1016B000209348038093490390934A03A0934B03DC
:1016C000B0934C0380914D0390914E03A0914F0332
:1016D000B09150030196A11DB11D80934D039093CD
:1016E0004E03A0934F03B0935003BF91AF919F91CE
:1016F0008F913F912F910F900FBE0F901F901895D3
:1017000026E8230F0296A11DB11DD2CFEF92FF92C2
:101710000F931F93CF93DF93F82E192FE62E042FEC
:1017200081E0860F880F0E94B90483E00E94B9040B
:10173000CF2DD12FEC0EFD2EF11CCE15DF05B9F00B
:1017400007FF13C0FE0184910E94B904182F80E0A6
:101750000E94B904812321968111EFCFDF91CF91AF
:101760001F910F91FF90EF9008958881EDCF81E058
:10177000F5CF0F931F93CF93DF9310926A071092C8
:10178000690788EE93E0A0E0B0E080936B07909348
:101790006C07A0936D07B0936E078FE891E090936C
:1017A0006807809367078FEF9FEF9093740780938C
:1017B0007307109274081092730881EA91E0909375
:1017C0007208809371086AEA71E08BE698E00E94E3
:1017D0008608C7EBD7E00BE618E06AEA71E0CE01B5
:1017E0000E94860829960C171D07B9F7DF91CF9143
:1017F0001F910F910895CF93DF93CDB7DEB7669712
:101800000FB6F894DEBF0FBECDBF789484B582606A
:1018100084BD84B5816084BD85B5826085BD85B594
:10182000816085BD80916E00816080936E00109212
:10183000810080918100826080938100809181008D
:10184000816080938100809180008160809380001E
:1018500080919100826080939100809191008160DD
:10186000809391008091900081608093900080919E
:10187000C10084608093C1008091C1008260809328
:10188000C1008091C10081608093C1008091C3003C
:1018900081608093C3008091C00082608093C0000B
:1018A0008091C20081608093C20080917A00846040
:1018B00080937A0080917A00826080937A00809190
:1018C0007A00816080937A0080917A0080688093AA
:1018D0007A0010926603109256031092580380917A
:1018E000D70081608093D70080EA8093D80089B5C3
:1018F000806189BD89B5826089BD09B400FEFDCFD4
:1019000061E070E080E090E00E9470058091D80076
:101910008F7C80618093D8008091E000807F8093ED
:10192000E0008091E1008E7E8093E1008DE0809365
:10193000E200559A209A81EC80937C0085B1806FFB
:1019400085B984B1877E84B984B1876E84B95E9A83
:101950005F988AB1806D8AB9769A6E9881B3806FEC
:1019600081BB899880B38D7080BB80E58CBD81E0A0
:101970008DBD85E090E00E9461065F9A85E090E071
:101980000E9461065E985C98ECE5F6E084918EBD5D
:1019900000000DB407FEFDCF319626E0E936F207D0
:1019A000A9F75C9A81E8809364008091650081606A
:1019B000809365000E9479060E94660687FF15C025
:1019C0005C9885EA8EBD00000DB407FEFDCF5C9AE1
:1019D0002E982F982D9880916400806280936400E7
:1019E00081E083BF889513BEFCCF0E94660682FF0C
:1019F00048C02D980E94660684788438E1F40E94DD
:101A00005F0688EC90E00E9461062F9882E090E0EB
:101A10000E94D0158F3F29F06FEF82E090E00E9486
:101A2000D81584EF91E00E9461062F9A0E94660605
:101A300084788438D9F30E94660684718431E1F495
:101A40000E945F0688EC90E00E9461062E9882E07A
:101A500090E00E94D015882329F060E082E090E0B9
:101A60000E94D81584EF91E00E9461062E9A0E9490
:101A7000660684718431D9F388EC90E00E94610697
:101A8000B4CF0E945F0682E090E00E942408882381
:101A900009F467C03E9A3F9A81E090E00E942408D2
:101AA000382F3470532E81FF0FC031112E9801EF63
:101AB0001FEF78E0A72EB12C0E94660686FF54C067
:101AC0002E9A2F9A0E945F0682E390E00E946106A0
:101AD0000E9466068111F8CF80E180930001E9E65B
:101AE000F6E0E49190917B008E2F880F880F807232
:101AF0009F7D892B80937B00E770E064E0937C00FE
:101B000080917A00806480937A0080917A0086FDCB
:101B1000FCCF6091780070917900072E000C880B43
:101B2000990B611571058105910511F00E94CC1486
:101B30008FB7F8944091490350914A0360914B0349
:101B400070914C038FBF80912A03882309F4D7C07A
:101B500010922A0380E090E0892B51F30E9400004C
:101B6000E7CF3E983F9898CF552029F004301105D3
:101B700011F42E9A2F9881E00E94DA03980117FF42
:101B800004C022273327201B310B27703327C801BD
:101B900017FD079663E0959587956A95E1F717FF1E
:101BA00005C00197A501421B530B9A01BC01769514
:101BB000762F662777956795F12CE12C1501221A6F
:101BC000330A8E3F5FEF950709F447C0A8E5AE9D45
:101BD0004001AF9D900C1124DB01A959BC4F50E08E
:101BE00040E0F401E455FA4F4F01FB01E951FC4F8D
:101BF0003F018F3F980781F0F401E40FF51FE49156
:101C0000022E01C0EE0F0A94EAF75496FC91549705
:101C1000EF2B5496EC93549721153105C1F0F40144
:101C2000E40FF51F44906301C40ED51EE42DF0E0CF
:101C3000022C02C0F595E7950A94E2F7FC8BEB8B3A
:101C4000F601F489FD8B4B884F2AF601448A4F5FD9
:101C50005F4F11964835510561F6019660587F4FE8
:101C6000EA94EF2809F047C00E9479068FE090E0DF
:101C70000E9461060F5F1F4F0931110509F01CCF4B
:101C8000552011F02F9A2D9880E991E00E9461066D
:101C90000E945F0681E090E00E94240880FF14CF3C
:101CA0008AE090E00E9424089FEF980F9E3F08F082
:101CB0000BCF22E330E030933B0320933A0328E339
:101CC00030E030933D0320933C030BE010E0682F9D
:101CD00081E798E00E940B07C8010E9424080F5F6B
:101CE0001F4F0131110599F70E94790688EE93E0A4
:101CF0000E946106E9CEEE24E394F12C62CF90912C
:101D00002B03442E491A942D20910001421648F4C9
:101D10009F5F921708F01ECF81E083BF889513BEA6
:101D200019CF91E090932A0340932B03209128032D
:101D3000309129032F5F3F4F3093290320932803CD
:101D4000E7E6F3E081118FEF002481938193819383
:101D500081930394D1F710923D0310923C031092AB
:101D60003B0310923A0380913903809338030E9419
:101D70006606809339038091460390914703813032
:101D8000910509F4A3C050F08230910509F475C3A0
:101D9000039709F4C4C30E947906DCCE0AE010E080
:101DA00010933B0300933A0385E090E090933D034A
:101DB00080933C038CED96E00E946E0710933B03EA
:101DC00000933A0384E190E090933D0380933C03B9
:101DD00084ED96E00E946E0710933B0300933A0354
:101DE00080E290E090933D0380933C038091010159
:101DF000882309F468C08AEC96E00E946E070AE026
:101E000010E010933B0300933A038DE290E090932F
:101E10003D0380933C038CEA96E00E946E0710938A
:101E20003B0300933A0387E390E090933D03809354
:101E30003C038FE996E00E946E0788E00E946E06E0
:101E4000882329F181E090E0909347038093460333
:101E50002FB7F8948091490390914A03A0914B03C6
:101E6000B0914C032FBF8093420390934303A09300
:101E70004403B093450320E030E040E751EC209369
:101E8000020130930301409304015093050184E063
:101E90000E946E06882331F08091010191E089272C
:101EA0008093010180E20E946E06882309F473CFBB
:101EB00083E090E0909347038093460310924103A0
:101EC0001092400368CF8DEB96E097CF8FB7F894D0
:101ED0008090490390904A03A0904B03B0904C032C
:101EE0008FBF8091420390914303A0914403B0912E
:101EF0004503881A990AAA0ABB0A30ED831637E00F
:101F00009306A104B10408F0FCC0C501B4010E940D
:101F1000D51420E030E04AEF54E40E94ED1620E0B2
:101F200030E046E153E40E94121520E030E040E743
:101F300051E40E9480162B013C0140920201509214
:101F400003016092040170920501B3E02B2E312C45
:101F500007E010E0B101032C000C880B990B0E94E4
:101F6000D7149B01AC01C301B2010E9480160E94EC
:101F70005F176B0160387105C0F403301105ACF0D8
:101F800041E060E270E0C6010E947C060530110568
:101F900064F041E06FE170E0C6010E947C0641E020
:101FA00061E270E0C6010E947C060150110953E015
:101FB000250E311C8BE12816310461F6C301B201F4
:101FC0000E945F176B0145E06EE170E0C6010E9460
:101FD000E506D6011196BE8BAD8B45E06EE170E053
:101FE000CD010E94E506F6013296FC8BEB8B43E0B7
:101FF0006FE170E0CF010E94E506860101501109F2
:1020000045E06EE170E0C8010E94E5061601F2E0CD
:102010002F1A310843E06FE170E0C1010E94E5062C
:1020200043E06FE170E08B899C890E94E50645E002
:102030006EE170E08D899E890E94E50643E06FE1C4
:1020400070E0C1010E94E50645E06EE170E0C80164
:102050000E94E50620E030E040E85FE3C301B20102
:102060000E9481160E945F17CB0141E060E270E0A0
:102070000E947C0620E030E040E85FE3C301B2014B
:102080000E9480160E945F17CB0141E060E270E081
:102090000E947C0641E06FE170E0C6010E947C0670
:1020A00041E061E270E0C6010E947C0688E290E0B7
:1020B00090933B0380933A0385E090E090933D0337
:1020C00080933C0384E996E00E946E078CE390E0E5
:1020D00090933B0380933A0387E390E090933D0312
:1020E00080933C03C501B4012BE932E040E050E0AD
:1020F0000E944F1683E090E0821B930B0E94DA0748
:102100004ACE24EC821629E09206A104B104A0F57F
:102110000AE010E00E947D146B017C010E947D1496
:102120004B015C01C701B60120E430E040E050E023
:102130000E94E6156B01C501B40120E830E040E0E3
:1021400050E00E94E615CB0141E0B6010E947C06FA
:1021500001501109F9F683E290E090933B038093DC
:102160003A038CE190E090933D0380933C038DE82B
:1021700096E00E946E070FCE0E947D1400913403FA
:1021800010913503093511050CF4A9C010923503DF
:1021900010923403109233031092320385E090E0E2
:1021A00020913003309131032F5F3F4F3093310343
:1021B000209330038430910509F0C8C020912E038C
:1021C00030912F032F5F3F4F30932F0320932E0327
:1021D0009093370380933603209101018530910558
:1021E00009F0D3C0222309F4C0C00E947D1425E168
:1021F00030E040E050E00E94E615660F771F665A17
:102200007E4FDB016D917C91CE0101960E94860884
:1022100080916B0890916C08009709F4F2C0698175
:102220007A816115710509F4EAC040916D085091F9
:102230006E082D813E814217530708F4E0C00E94CA
:1022400086198D819E819093700880936F081E82FD
:102250001D82CE0101960E941C08B0900101C09021
:102260003603D09037031A8219821C821B821E8289
:102270001D826BE678E0CE0101960E946F08009106
:102280003E0310913F03043111050CF0D1C029E049
:10229000209FC001219F900D11249C012954384F8B
:1022A0007901BE016F5F7F4FC9010E946F08D7019E
:1022B0001796DC92CE9216971896BC920F5F1F4F1E
:1022C00010933F0300933E03CE0101960E941C0829
:1022D00082E090E090934703809346035CCDE090CA
:1022E0003203F090330339E0E316F1046CF01092FE
:1022F0003303109232030F5F1F4F10933503009387
:10230000340384E090E04CCF28EE33E040E050E02E
:102310000E94E615663071050CF438CF0F5F1F4F31
:102320006C3371052CF41092330310923203E5CF15
:102330004FEFE41AF40AF0923303E0923203109361
:1023400035030093340383E090E02ACF8530910574
:1023500009F03ECF20912C0330912D032F5F3F4F8A
:1023600030932D0320932C0333CF0E947D1428E05B
:1023700030E040E050E00E94E615660F771F665B94
:102380007E4FFB01608171813FCF0497E1F42223EE
:1023900069F00E947D1424E130E040E050E00E94AA
:1023A000E615660F771F6E5D7E4F2BCF0E947D1462
:1023B00024E130E040E050E00E94E615660F771F10
:1023C0006E5D7E4FDECF222369F00E947D1423E0F4
:1023D00030E040E050E00E94E615660F771F645E33
:1023E0007E4F0FCF0E947D1423E030E040E050E0AC
:1023F0000E94E615660F771F645E7E4FC2CF0E9473
:10240000371889819A8190936C0880936B088B812F
:102410009C8190936E0880936D088D819E8190932E
:10242000700880936F081A8219821C821B820FCF5A
:1024300007EB17E022E6822E28E0922E7801075F54
:102440001F4FB801C7010E946F08F7018785908967
:1024500097838683818980878016910679F7BE01EC
:102460006F5F7F4F82E698E00E946F08D092690804
:10247000C0926808B0926A0827CF0AE010E0109373
:102480003B0300933A0380913603909137038530E4
:10249000910529F589E190E090933D0380933C03F9
:1024A0008BE698E00E94560610933B0300933A0394
:1024B00088E290E090933D0380933C0367E370E0F3
:1024C00085E090E00E949A0684E00E946E068823D0
:1024D00009F461CC10924703109246035CCC049738
:1024E00079F489E190E090933D0380933C038BE67F
:1024F00098E00E94560662E370E084E090E0E2CF4C
:1025000089E190E090933D0380933C038BE698E053
:102510000E94560662E370E083E090E0D3CF80E84B
:1025200096E00E946E078EE796E00E946E0780910B
:102530003E0390913F030E94DA078AE796E00E94EB
:102540006E07E7EEF3E091E8915059F4E7E6F6E024
:1025500091E8915061F08191DF01119780688C932F
:10256000F8CF8191DF01119781608C93EDCF40E32B
:1025700068E070E090E080E00E94E50640E368E0FB
:1025800070E08FE790E00E94E5068DE0882E912CA8
:102590009BE0492E512C312C212CA0904003B0906F
:1025A0004103A20CB31C80913E0390913F03A816F7
:1025B000B9060CF0E4C03201FFEF6F1A7F0A02E0A7
:1025C00010E0D12CC12C29E02A9DC0012B9D900D3B
:1025D0001124AC014954584F5C8B4B8B4A5F5F4FC1
:1025E0005E8B4D8BAD89BE898D919C91C816D906A5
:1025F000FCF441E0B301C8010E947C067801BFEF02
:10260000EB1AFB0A41E0B201C7010E947C0641E0DF
:10261000B301C80102960E947C0641E0B401C701E3
:102620000E947C06EFEFCE1ADE0A0B5F1F4FDACF57
:102630006201F2E0CF1AD10828E230E030933B0388
:1026400020933A03D0923D03C0923C031E861D8620
:10265000188A1F861A8A198A6B897C89CE010D9681
:102660000E946F0889899A890B9708F459C06AEA11
:1026700071E0CE0107960E94860809891A89011522
:10268000110519F10930110510F009E010E0ED8590
:10269000FE85E00FF11FF08010826D857E8561154B
:1026A000710509F4BAC0FB0101900020E9F73197E8
:1026B000AF01461B570BCE0107960E944E088D8531
:1026C0009E85080F191FD801FC921A8219821C825C
:1026D0001B821E821D82BE01695F7F4FCE01019663
:1026E0000E946F080D811E810F5F1F4FB801CE0140
:1026F00001960E942608811195C0CE0101960E9484
:102700000A08BE016F5F7F4FCE010D960E946F08D1
:10271000CE0101960E941C08CE0107960E941C085B
:10272000CE010D960E945606B9E0BA9DF001BB9D00
:10273000F00D1124E954F84F8085882371F0E4E608
:10274000F0E0F0933B03E0933A03D0923D03C09254
:102750003C0387E796E00E946E07CE010D960E942B
:102760001C08FFEF2F1A3F0A2BE0420E511C3BE0E2
:10277000830E911C44E02416310409F00ECF8091A1
:102780003E0390913F030597ECF08EE690E0909326
:102790003B0380933A0388E390E090933D0380935A
:1027A0003C03809140039091410301960E94DA0717
:1027B00085E796E00E946E0780913E0390913F036B
:1027C0000E94DA0780E80E946E06882361F08091FB
:1027D000400390914103181619062CF40197909329
:1027E00041038093400380E10E946E06882399F0A4
:1027F0008091400390914103AC014C5F5F4F209169
:102800003E0330913F03421753072CF401969093F7
:1028100041038093400380E458CECE0107960E9486
:102820000A084DCF29813A818D819E8169EA71E044
:10283000820F931F0E9486191E830D8362CFCF9350
:10284000DF93CBE6D8E02997CE010E941C0887E0F1
:10285000C73BD807C1F78BE698E0DF91CF910C9486
:102860001C088F929F92AF92BF92CF92DF92EF920D
:10287000FF92CF93DF93EC01688179818A819B81FC
:10288000611571058105910521F464E279ED8BE50F
:1028900097E02DE133EF41E050E00E94E615490159
:1028A0005A019B01AC01A7EAB1E40E9405166B0135
:1028B0007C01ACEEB4EFA50194010E941316C60E84
:1028C000D71EE81EF91EF7FE06C081E0C81AD1081F
:1028D000E10880E8F80AC882D982EA82FB82C7014F
:1028E000B6019F77DF91CF91FF90EF90DF90CF906F
:1028F000BF90AF909F908F9008958F929F92AF92CC
:10290000BF92CF92DF92EF92FF926091120170918D
:1029100013018091140190911501611571058105D4
:10292000910521F464E279ED8BE597E02DE133EF39
:1029300041E050E00E94E61549015A019B01AC01BB
:10294000A7EAB1E40E9405166B017C01ACEEB4EF7E
:10295000A50194010E941316C60ED71EE81EF91E8B
:10296000F7FE06C081E0C81AD108E10880E8F80A3D
:10297000C0921201D0921301E0921401F09215015D
:10298000C701B6019F77FF90EF90DF90CF90BF9087
:10299000AF909F908F9008956093120170931301F0
:1029A00080931401909315010895E89409C097FB52
:1029B0003EF490958095709561957F4F8F4F9F4F16
:1029C0009923A9F0F92F96E9BB279395F69587955A
:1029D00077956795B795F111F8CFFAF4BB0F11F41D
:1029E00060FF1BC06F5F7F4F8F4F9F4F16C08823C4
:1029F00011F096E911C0772321F09EE8872F762FFA
:102A000005C0662371F096E8862F70E060E02AF03A
:102A10009A95660F771F881FDAF7880F9695879526
:102A200097F908950E9425150C9496150E94881513
:102A300038F00E948F1520F0952311F00C947F152B
:102A40000C94851511240C94CA150E94A71570F3D7
:102A5000959FC1F3950F50E0551F629FF001729F43
:102A6000BB27F00DB11D639FAA27F00DB11DAA1F52
:102A7000649F6627B00DA11D661F829F2227B00D9F
:102A8000A11D621F739FB00DA11D621F839FA00D2A
:102A9000611D221F749F3327A00D611D231F849F7A
:102AA000600D211D822F762F6A2F11249F575040D1
:102AB0009AF0F1F088234AF0EE0FFF1FBB1F661F4C
:102AC000771F881F91505040A9F79E3F510580F015
:102AD0000C947F150C94CA155F3FE4F3983ED4F331
:102AE000869577956795B795F795E7959F5FC1F7B9
:102AF000FE2B880F911D9695879597F9089597F964
:102B00009F6780E870E060E008959FEF80EC089593
:102B100000240A94161617061806090608950024BC
:102B20000A9412161306140605060895092E039436
:102B3000000C11F4882352F0BB0F40F4BF2B11F4AA
:102B400060FF04C06F5F7F4F8F4F9F4F089557FD09
:102B50009058440F551F59F05F3F71F04795880F0B
:102B600097FB991F61F09F3F79F0879508951216A2
:102B700013061406551FF2CF4695F1DF08C016164E
:102B800017061806991FF1CF8695710561050894FF
:102B90000895E894BB2766277727CB0197F9089516
:102BA000F999FECF92BD81BDF89A992780B5089515
:102BB000262FF999FECF1FBA92BD81BD20BD0FB659
:102BC000F894FA9AF99A0FBE01960895052E97FB8C
:102BD0001EF400940E94FD1557FD07D00E944F1669
:102BE00007FC03D04EF40C94FD155095409530959C
:102BF00021953F4F4F4F5F4F089590958095709569
:102C000061957F4F8F4F9F4F08950E947116A59F2A
:102C1000900DB49F900DA49F800D911D11240895D7
:102C2000B7FF0C9405160E940516821B930B08959E
:102C30002F923F924F925F926F927F928F929F92CC
:102C4000AF92BF92CF92DF92EF92FF920F931F93BA
:102C5000CF93DF93CDB7DEB7CA1BDB0B0FB6F8946B
:102C6000DEBF0FBECDBF09942A88398848885F84AB
:102C70006E847D848C849B84AA84B984C884DF801C
:102C8000EE80FD800C811B81AA81B981CE0FD11D00
:102C90000FB6F894DEBF0FBECDBFED010895A1E2DF
:102CA0001A2EAA1BBB1BFD010DC0AA1FBB1FEE1FC6
:102CB000FF1FA217B307E407F50720F0A21BB30B11
:102CC000E40BF50B661F771F881F991F1A9469F78D
:102CD00060957095809590959B01AC01BD01CF01E9
:102CE0000895A29FB001B39FC001A39F700D811DE5
:102CF0001124911DB29F700D811D1124911D089505
:102D00005058BB27AA270E9498160C9496150E942B
:102D1000881538F00E948F1520F039F49F3F19F480
:102D200026F40C9485150EF4E095E7FB0C947F15C2
:102D3000E92F0E94A71558F3BA1762077307840793
:102D4000950720F079F4A6F50C94C9150EF4E095DA
:102D50000B2EBA2FA02D0B01B90190010C01CA0155
:102D6000A0011124FF27591B99F0593F50F4503E00
:102D700068F11A16F040A22F232F342F4427585FF2
:102D8000F3CF469537952795A795F0405395C9F70A
:102D90007EF41F16BA0B620B730B840BBAF09150C2
:102DA000A1F0FF0FBB1F661F771F881FC2F70EC061
:102DB000BA0F621F731F841F48F487957795679534
:102DC000B795F7959E3F08F0B0CF9395880F08F020
:102DD0009927EE0F9795879508950E9401170C94F7
:102DE00096150E948F1558F00E94881540F029F41E
:102DF0005F3F29F00C947F1551110C94CA150C9467
:102E000085150E94A71568F39923B1F3552391F313
:102E1000951B550BBB27AA2762177307840738F049
:102E20009F5F5F4F220F331F441FAA1FA9F335D0A6
:102E30000E2E3AF0E0E832D091505040E695001C5A
:102E4000CAF72BD0FE2F29D0660F771F881FBB1F14
:102E5000261737074807AB07B0E809F0BB0B802DF2
:102E6000BF01FF2793585F4F3AF09E3F510578F01E
:102E70000C947F150C94CA155F3FE4F3983ED4F38D
:102E8000869577956795B795F7959F5FC9F7880FF2
:102E9000911D9695879597F90895E1E0660F771F44
:102EA000881FBB1F621773078407BA0720F0621BD5
:102EB000730B840BBA0BEE1F88F7E09508950E9400
:102EC00066176894B1110C94CA1508950E94AF1545
:102ED00088F09F5798F0B92F9927B751B0F0E1F0DB
:102EE000660F771F881F991F1AF0BA95C9F714C08B
:102EF000B13091F00E94C915B1E008950C94C91544
:102F0000672F782F8827B85F39F0B93FCCF38695C3
:102F100077956795B395D9F73EF490958095709520
:102F200061957F4F8F4F9F4F0895EE0FFF1F0590C4
:102F3000F491E02D09940F931F93CF93DF93823088
:102F4000910510F482E090E0E0917708F091780824
:102F500030E020E0B0E0A0E0309799F42115310591
:102F600009F44AC0281B390B24303105D8F58A8171
:102F70009B816115710589F1FB0193838283FE01B9
:102F800011C0408151810281138148175907E0F037
:102F90004817590799F4109761F012960C931297FD
:102FA00013961C933296CF01DF91CF911F910F9111
:102FB00008950093770810937808F4CF2115310510
:102FC00051F04217530738F0A901DB019A01BD0106
:102FD000DF01F801C1CFEF01F9CF9093780880931A
:102FE0007708CDCFFE01E20FF31F8193919322501A
:102FF000310939832883D7CF20917508309176081D
:10300000232B41F420911801309119013093760857
:103010002093750820911601309117012115310573
:1030200041F42DB73EB740911A0150911B01241B6A
:10303000350BE0917508F0917608E217F307A0F4DC
:103040002E1B3F0B2817390778F0AC014E5F5F4FFE
:103050002417350748F04E0F5F1F509376084093B2
:103060007508819391939FCFF0E0E0E09CCFCF93E0
:10307000DF930097E9F0FC01329713821282A0914E
:103080007708B0917808ED0130E020E01097A1F4C6
:1030900020813181820F931F20917508309176082D
:1030A0002817390709F061C0F0937608E093750896
:1030B000DF91CF910895EA01CE17DF07E8F54A8145
:1030C0005B819E0141155105B1F7E901FB83EA835C
:1030D00049915991C40FD51FEC17FD0761F4808108
:1030E00091810296840F951FE901998388838281DB
:1030F00093819B838A83F0E0E0E012968D919C910E
:1031000013970097B9F52D913C911197CD01029637
:10311000820F931F20917508309176082817390780
:1031200039F6309751F51092780810927708B093DD
:103130007608A0937508BCCFD383C28340815181A8
:10314000840F951FC817D90761F44E5F5F4F8881C0
:103150009981480F591F518340838A819B819383B2
:1031600082832115310509F0B0CFF0937808E09300
:1031700077089ECFFD01DC01C0CF13821282D7CF2A
:10318000B0E0A0E0E6ECF8E10C941A168C01009790
:1031900051F4CB010E949B178C01C801CDB7DEB75B
:1031A000E0E10C943616FC01E60FF71F9C0122505B
:1031B0003109E217F30708F49DC0D901CD91DC91E4
:1031C0001197C617D70798F0C530D10530F3CE0157
:1031D00004978617970708F3C61BD70B2297C1934E
:1031E000D1936D937C93CF010E943718D6CF5B01AA
:1031F000AC1ABD0A4C018C0E9D1EA0917708B091AF
:103200007808512C412CF12CE12C109731F580914C
:103210007508909176088815990509F05CC04616E6
:10322000570608F058C08091160190911701009739
:1032300041F48DB79EB740911A0150911B01841B38
:10324000950BE817F90708F055C0F0937608E0935E
:103250007508F90171836083A0CF8D919C911197BE
:1032600012966C90129713967C901397A815B90537
:1032700059F56C0142E0C40ED11CCA14DB0420F1E4
:10328000AC014A195B09DA011296159780F0628247
:10329000738251834083D9016D937C93E114F104CF
:1032A00071F0D7011396FC93EE93129776CF229686
:1032B0008C0F9D1FF90191838083F301EFCFF09371
:1032C0007808E093770869CF4816590608F42C016E
:1032D0007D01D3019ACFCB010E949B177C010097FF
:1032E00049F0AE01B8010E947D19C8010E9437184B
:1032F000870153CF10E000E050CFFB01DC0102C09A
:1033000001900D9241505040D8F70895FB01DC0127
:1033100001900D920020E1F7089513E0CFEAD3E089
:1033200004C0FE010E9495172196C03BD107C9F742
:04333000F894FFCF3F
:103334001001000070C1FFFFFFFF00E1000000006A
:10334400000001000000000079088000AB01B70113
:10335400C001CD01D201D801E001E701EF01F6017E
:10336400FA01010207020D021402190223022A02C1
:10337400300238023D0245024B0255025B026202F2
:1033840067026C0273027802810287028D0298023E
:103394009F02A602AE02B802C202C802CF02D6023F
:1033A400DC02E402EB02F102F70203030A03100356
:1033B40016031F0300C180810000000000000038D4
:1033C40004A30559044E049F045D047B040000001B
:1033D400000B072906890728062E004465626174DC
:1033E4006520436C756200536B7972696465720081
:1033F400426C6F6F647461696E7465640041696ED8
:103404006F00416D626572004261726261726100B7
:10341400426569646F750042656E6E65747400463A
:10342400697363686C00496661004A61686F64612E
:10343400004B61657961004B61766568004B697288
:10344400617261004C697361004E696E67677561F2
:103454006E67004E6F656C6C650052617A6F720026
:10346400526F7361726961005361726100537563D5
:10347400726F73650054686F6D61005869616E679F
:103484006C696E670044696C7563004B6571696EA5
:1034940067004D6F6E610051697169004D697A75FD
:1034A4006B69004A65616E00546967686E61726990
:1034B4000044656879610056656E74690041726CF8
:1034C40065636368696E6F00436861736361004399
:1034D40068696C6465004369746C616C6900436F6E
:1034E4006C756D62696E61004573636F66666965CC
:1034F4007200466C696E7300467572696E610048AD
:10350400752054616F004C61756D61004D61767575
:10351400696B61004E6168696461004E617669613E
:10352400004E65666572004E657576696C6C6574EF
:1035340074650052616964656E00536B69726B0057
:103544005661726B610057616E6465726572005AF0
:08355400686F6E676C690000EE
:00000001FF
