:100000000C94C3030C94EB030C94EB030C94EB03E0
:100010000C94EB030C94EB030C94EB030C94EB03A8
:100020000C94EB030C94EB030C94640A0C94D30A29
:100030000C94EB030C94EB030C94EB030C94EB0388
:100040000C94EB030C94EB030C94EB030C94EB0378
:100050000C94EB030C94EB030C94EB030C941A0A32
:100060000C94EB030C94EB030C94EB030C94EB0358
:100070000C94EB030C94EB030C94EB030C94EB0348
:100080000C94EB030C94EB030C94EB030C94EB0338
:100090000C94EB030C94EB030C94EB030C94EB0328
:1000A0000C94EB030C94EB030C94EB0300000000A6
:1000B000003E5B4F5B3E3E6B4F6B3E1C3E7C3E1CEE
:1000C000183C7E3C181C577D571C1C5E7F5E1C0034
:1000D000183C1800FFE7C3E7FF0018241800FFE7EB
:1000E000DBE7FF30483A060E2629792926407F05AE
:1000F0000507407F05253F5A3CE73C5A7F3E1C1CC4
:1001000008081C1C3E7F14227F22145F5F005F5F83
:1001100006097F017F006689956A6060606060946F
:10012000A2FFA29408047E040810207E2010080874
:100130002A1C08081C2A08081E101010100C1E0C7F
:100140001E0C30383E3830060E3E0E060000000011
:100150000000005F00000007000700147F147F14F8
:10016000242A7F2A1223130864623649562050003D
:1001700008070300001C2241000041221C002A1C29
:100180007F1C2A08083E0808008070300008080814
:100190000808000060600020100804023E51494534
:1001A0003E00427F400072494949462141494D3352
:1001B0001814127F1027454545393C4A49493141B9
:1001C000211109073649494936464949291E000087
:1001D00014000000403400000008142241141414DC
:1001E0001414004122140802015909063E415D59C8
:1001F0004E7C1211127C7F494949363E41414122D1
:100200007F4141413E7F494949417F090909013EFA
:10021000414151737F0808087F00417F4100204021
:10022000413F017F081422417F404040407F021C33
:10023000027F7F0408107F3E4141413E7F0909094A
:10024000063E4151215E7F09192946264949493216
:1002500003017F01033F4040403F1F2040201F3FDC
:100260004038403F63140814630304780403615961
:10027000494D43007F4141410204081020004141A3
:10028000417F04020102044040404040000307084F
:100290000020545478407F2844443838444444284B
:1002A000384444287F385454541800087E090218F2
:1002B000A4A49C787F0804047800447D400020407A
:1002C000403D007F1028440000417F40007C0478BE
:1002D00004787C080404783844444438FC18242406
:1002E0001818242418FC7C08040408485454542486
:1002F00004043F44243C4040207C1C2040201C3C03
:100300004030403C44281028444C9090907C4464F9
:10031000544C44000836410000007700000041368C
:10032000080002010204023C2623263C1EA1A16112
:10033000123A4040207A3854545559215555794144
:100340002154547841215554784020545579400C1B
:100350001E527212395555555939545454593955FC
:100360005454580000457C410002457D420001453F
:100370007C40F0292429F0F0282528F07C545545AC
:10038000002054547C547C0A097F4932494949323F
:100390003248484832324A4848303A4141217A3A54
:1003A00042402078009DA0A07D39444444393D401E
:1003B00040403D3C24FF2424487E4943662B2FFCCB
:1003C0002F2BFF0929F620C0887E09032054547979
:1003D000410000447D413048484A32384040227A4A
:1003E000007A0A0A727D0D19317D2629292F2826C7
:1003F0002929292630484D402038080808080808CF
:100400000808382F10C8ACBA2F102834FA00007B27
:10041000000008142A142222142A1408950022002D
:1004200095AA005500AAAA55AA55AA000000FF00E7
:10043000101010FF00141414FF001010FF00FF1024
:1004400010F010F0141414FC001414F700FF000056
:10045000FF00FF1414F404FC141417101F10101FD5
:10046000101F1414141F00101010F0000000001FC3
:10047000101010101F10101010F010000000FF10CE
:100480001010101010101010FF10000000FF1400CA
:1004900000FF00FF00001F10170000FC04F41414FC
:1004A0001710171414F404F40000FF00F7141414C8
:1004B00014141414F700F7141414171410101F1048
:1004C0001F141414F4141010F010F000001F101F6B
:1004D0000000001F14000000FC140000F010F010D9
:1004E00010FF10FF141414FF141010101F00000050
:1004F00000F010FFFFFFFFFFF0F0F0F0F0FFFFFF54
:100500000000000000FFFF0F0F0F0F0F38444438AA
:10051000447C2A2A3E147E02020606027E027E02E5
:1005200063554941633844443C04407E201E200604
:10053000027E020299A5E7A5991C2A492A1C4C7241
:1005400001724C304A4D4D303048784830BC625AC8
:10055000463D3E494949007E0101017E2A2A2A2A58
:100560002A44445F444440514A444040444A514034
:100570000000FF0103E080FF000008086B6B0836F5
:1005800012362436060F090F060000181800000066
:100590001010003040FF0101001F01011E00191D55
:1005A0001712003C3C3C3C0000000000080B00021D
:1005B00002020000090400000102020000052400FC
:1005C000100105240101010424020605240600018E
:1005D0000705810310004009040100020A00000021
:1005E00007050202400000070583024000000403E3
:1005F000090412010002EF0201404123368000018C
:100600000102030141726475696E6F204C4C430016
:1006100041726475626F7900F0F89C8E8783878ED3
:100620009CF8F00000FEFF0303030303070EFCF831
:100630000000FEFF0303030303070EFCF80000FFA6
:10064000FF00000000000000FFFF0000FEFF8383AA
:10065000838383C7EE7C380000F8FC0E0703030396
:10066000070EFCF800003F7FE0C08080C0E07F3FC5
:10067000FFFF01010101010101FFFF0000FFFF0C6D
:100680000C0C0C1C3E77E3C100007FFFC0C0C0C053
:10069000C0E0703F1F00001F3F70E0C0C0C0E070AE
:1006A0003F1F00007FFFC1C1C1C1C1E3773E1C00F5
:1006B000001F3F70E0C0C0C0E0703F1F000000009E
:1006C0000001FFFF01000000D5F08D14A1C881CF0B
:1006D000D9F1AF200000000000000000002A2B2804
:1006E000000000000000000000000000000000000A
:1006F00000000000002C9EB4A0A1A2A434A6A7A5CF
:10070000AE362D3738271E1F20212223242526B35D
:1007100033B62EB7B89F8485868788898A8B8C8D5F
:100720008E8F909192939495969798999A9B9C9D71
:100730002F3130A3AD350405060708090A0B0C0D4F
:100740000E0F101112131415161718191A1B1C1D51
:10075000AFB1B0B50005010906A101850205071971
:10076000E029E715002501750195088102950175BD
:1007700008810395067508150025730507190029DA
:10078000738100C0380D11241FBECFEFDAE0DEBF49
:10079000CDBF13E0A0E0B1E0E6E9F6E202C00590CB
:1007A0000D92AE38B107D9F728E0AEE8B3E001C04A
:1007B0001D92A934B207E1F713E0C3ECD3E004C003
:1007C0002197FE010E944313C23CD107C9F70E9442
:1007D000DA0D0C9449130C940000E0ECF3E0A0E077
:1007E000B8E000800EBC8111012C1197A0FDFDCF57
:1007F0000192B9F70DB40895CF93DF93FC01818185
:1008000090911408482F490F5527551F483051051E
:100810009CF5A281B381109709F520E138E033837C
:100820002283208120931208809313088091150859
:10083000820F808320911608A22FB09117088A2F6B
:10084000821B8917E8F481813D91C82FD0E0C35FF6
:10085000DE4F38838F5F8183F2CFD90118962D91B7
:100860003C91199721153105C1F720E138E019961F
:100870003C932E931897D5CF80E0DF91CF910895C8
:1008800081E0FBCFFC018091BF03882311F13FB7CA
:10089000F89482E08093E9002091F200822F90E0AA
:1008A0001816190614F481E090E0882339F028988E
:1008B00044E64093BE034091F1004083222339F087
:1008C0002091F200211103C02BE62093E8003FBFE6
:1008D00008958FEF9FEF0895CF93DF931F92CDB7C9
:1008E000DEB76983DC01ED91FC910280F381E02D9C
:1008F00041E050E0BE016F5F7F4F09950F90DF919F
:10090000CF91089583E08093E9008091F2008823DD
:1009100019F08AE38093E8000895CF93DF931F9244
:10092000CDB7DEB7FC018485958597FD08C02FEF14
:100930003FEF358724870F90DF91CF910895CE0147
:1009400001960E944204019719F4898190E0F3CF47
:100950008FEF9FEFF0CF0F931F93CF93DF931F92F3
:10096000CDB7DEB78C01FC018485958597FF0BC060
:10097000CE0101960E944204019771F4898190E0B2
:10098000F80195878487F801848595850F90DF911C
:10099000CF911F910F9108958FEF9FEFF1CFFC0141
:1009A0008485958597FD0BC09FB7F89482E080936E
:1009B000E9008091F2009FBF90E0019608959FB7F3
:1009C000F89482E08093E9008091F2009FBF90E06C
:1009D00008953FB7F8948091BA039091BB03A0911A
:1009E000BC03B091BD0326B5A89B05C02F3F19F0ED
:1009F0000196A11DB11D3FBFBA2FA92F982F88279F
:100A0000BC01CD01620F711D811D911D42E0660F79
:100A1000771F881F991F4A95D1F708958F929F924B
:100A2000AF92BF92CF92DF92EF92FF926B017C0167
:100A30000E94E9044B015C01C114D104E104F104FA
:100A4000B9F00E94E904681979098A099B09683E8E
:100A500073408105910580F321E0C21AD108E108B5
:100A6000F10888EE880E83E0981EA11CB11CE4CF2B
:100A7000FF90EF90DF90CF90BF90AF909F908F90BE
:100A8000089540919C0350919D0320919A033091C9
:100A90009B0342175307B4F49091E8009570E1F37B
:100AA0009091E80092FD19C08093F10080919C0321
:100AB00090919D0301968F739927892B19F48EEFDE
:100AC0008093E80080919C0390919D030196909300
:100AD0009D0380939C0381E0089580E00895DF9258
:100AE000EF92FF920F931F93CF93DF93D82E8A013B
:100AF000EB017B01E40EF51ECE15DF0559F0D7FEA4
:100B000012C0FE0184910E94410521968111F4CF0B
:100B10000FEF1FEFC801DF91CF911F910F91FF9051
:100B2000EF90DF9008958881EECF2FB7F89487700B
:100B30008093E9009091E800892F807295FF04C0AE
:100B40009091F20080E4891B2FBF089583E00E94FA
:100B5000950590E008957F928F929F92AF92BF92F9
:100B6000CF92DF92EF92FF920F931F93CF93DF9379
:100B7000C82E8B017A018091BF03811110C08FEFC5
:100B80009FEFDF91CF911F910F91FF90EF90DF903A
:100B9000CF90BF90AF909F908F907F90089580915D
:100BA000A00380FF05C08091E00082608093E00098
:100BB000CE2DDF2DD12C8AEFB82E8C2D8770982E5C
:100BC0008C2D8072882E8C2D8074782E9AE3A92E1D
:100BD000209719F4DD2009F452C08C2D0E94950550
:100BE00081110AC0BA94BB2051F261E070E080E04C
:100BF00090E00E940E05ECCF8C171D0611F00CF052
:100C00008C2F9FB7F8949092E9002091E80025FD81
:100C100002C09FBFDDCF282F30E0C21BD30B88203E
:100C200029F08150A0F01092F100FBCFF801C7FC31
:100C30000AC0815050F041914093F100FACF4491A5
:100C40004093F10031968150D0F7020F131FDD2041
:100C500021F0A092E800D12CDCCF8091E80085FD46
:100C600007C0A092E800DD24D394209791F2F3CF3F
:100C7000209779F6772069F2A092E800CACF5D98B4
:100C800084E680939F03C7017CCFCF93DF93EC0171
:100C900080910C01882331F083E00E94AB05181687
:100CA000190634F081E090E09B838A8380E090E035
:100CB000DF91CF910895615030F02091F100FC0157
:100CC00020830196F8CF289884E68093BE03089588
:100CD000AF92BF92CF92DF92EF92FF920F931F934A
:100CE000CF93DF936C017B018B01040F151FEB0188
:100CF0005E01AE18BF08C017D10759F06991D6013F
:100D0000ED91FC910190F081E02DC6010995892BB0
:100D100079F7C501DF91CF911F910F91FF90EF906F
:100D2000DF90CF90BF90AF90089580919203811192
:100D30000DC082E080938E0384E080938F03109235
:100D400091031092900381E0809392038EE893E0E8
:100D50000895EF92FF921F93CF93DF931F92CDB729
:100D6000DEB77C018091210881112AC011E0109327
:100D70001408109315088AE198E09093170880935F
:100D80001608109219081092180888E491E09093C0
:100D900011088093100810921C0810921B081092E2
:100DA0001E0810921D0810931F081093200881EC54
:100DB00080931A080E9495060E94FC031093210854
:100DC00082E0898341E050E0BE016F5F7F4F8091F8
:100DD00013080E94AB0597FD08C08091130848E0F6
:100DE00050E0B70180640E94AB050F90DF91CF9176
:100DF0001F91FF90EF900895E7E3F8E016821782C5
:100E0000108611861286138614828BE398E00C9468
:100E1000A9060F931F93CF93DF931F92CDB7DEB731
:100E200082E0898342E450E06CEA75E080E80E9449
:100E30006F050E949506DC0112960D911C9101151B
:100E4000110589F0D801ED91FC910280F381E02D2C
:100E5000BE016F5F7F4FC801099597FD04C0F8017F
:100E600000851185ECCF89810F90DF91CF911F9183
:100E70000F910895DC01FB0112962C911297848149
:100E800095812817190641F491818081813A31F4C6
:100E90009D7F81E0913009F080E008958132E1F793
:100EA0009B3029F482811F968C9381E008959A30BB
:100EB00099F7828150968C93F8CFDC01FB0188E48E
:100EC000808389E4818384E482831D969C911D97AD
:100ED0009F709F5B93831D968D919C9124E09695C6
:100EE00087952A95E1F78F708F5B848385E008955D
:100EF000EF92FF920F931F93CF93DF93FB0120811B
:100F0000213871F52381223259F5DC0112964C917A
:100F1000248135814217130619F5EC010B851C85D8
:100F2000F12CE12C0115110589F0F801448155815E
:100F30006281738180E80E946F058F3F980749F0B6
:100F4000E80EF91ED8010D911C91ECCF81E08F873E
:100F5000C701DF91CF911F910F91FF90EF900895FE
:100F600090E080E0F6CFCF93DF93CDB7DEB76997FF
:100F70000FB6F894DEBF0FBECDBFFC01DB018C9134
:100F80008F5F8C939E012D5F3F4F8DE0D9011D92A5
:100F90008A95E9F729E0298384E08A8391E09D839B
:100FA00083E08E832A8721E22B879C879D879F87FA
:100FB00022E2288B27E02B8B25E02C8B8E8B20E4E4
:100FC00030E0388F2F8B998F82818B839585868532
:100FD000998B8A8B838180688D8B49E150E0BE01BB
:100FE0006F5F7F4F80E00E946F0569960FB6F8949F
:100FF000DEBF0FBECDBFDF91CF910895CF92DF92BC
:10100000EF92FF920F931F93CF93DF936C01EB014D
:101010007B01E40EF51E10E000E0CE15DF0581F047
:1010200069916D30D1F3D601ED91FC910190F08181
:10103000E02DC6010995892B19F00F5F1F4FEDCFE9
:10104000C801DF91CF911F910F91FF90EF90DF903A
:10105000CF900895DC016838A0F06858FD0186E063
:10106000662321F09681961301C016828150319635
:101070008111F6CFCD0104960E94A90681E090E08F
:101080000895862F90E067FF13C0FC01E058F10936
:1010900081E090E001C0880FEA95EAF78095149608
:1010A0009C911497892314968C93149760E0D6CF63
:1010B0001C96ED91FC911D97E80FF91F6491662332
:1010C000E1F0862F807C803C69F414968C91149713
:1010D0008F7B14968C9314976F73623309F0BECF95
:1010E00064E6BCCF67FFF9CF14968C9114978D7F7F
:1010F00014968C9314976F77F0CF90E080E008956A
:10110000DC01683888F1685816968C911697861716
:1011100021F117968C9117978617F9F018968C91F4
:1011200018978617D1F019968C9119978617A9F000
:101130001A968C911A97861781F01B968C911B97A3
:10114000861759F0FD01369690E080E0219121113B
:101150004FC08A0F9B1FFC016683CD0104960E943D
:10116000A90681E090E00895862F90E067FF12C005
:10117000FC01E058F10921E030E001C0220FEA95BE
:10118000EAF714968C911497822B14968C931497EB
:1011900060E0BACF1C96ED91FC911D97E80FF91F06
:1011A0006491611109C081E090E013969C938E9345
:1011B000129790E080E00895862F807C803C69F44F
:1011C00014968C911497806414968C9314976F7373
:1011D000623309F099CF64E697CF67FFF9CF149691
:1011E0008C911497826014968C9314976F77F0CF3C
:1011F00001968630910509F0A9CFD5CFEF92FF92E5
:101200001F93CF93DF93EC01162F0E9480087C017F
:10121000612FCE010E942A08C7019927DF91CF9143
:101220001F91FF90EF9008952D9A0895BC0190E0D2
:1012300080E00C940E058FB18095807F669B88605E
:101240001C9B84600895AF92BF92CF92DF92EF9281
:10125000FF920F931F93CF93DF936D3079F0C0917E
:10126000A603D091A7036A30B1F41092A90310929B
:10127000A8032896D093A703C093A60381E090E02B
:10128000DF91CF911F910F91FF90EF90DF90CF9062
:10129000BF90AF9008954091A8035091A90385E0B5
:1012A000689FF0011124E455FF4F9A01C12C80E1A1
:1012B000E82EA5E070E0CA1621F0CF0101967491E6
:1012C000FC0110E000E0B72FB170DB2E20383105B3
:1012D000D0F4CE01800F911F80349105A0F461E01D
:1012E00081FD64E080FD660F82FD6295887FE89E47
:1012F000D0011124A20FF62EA054BC4F8C91DD20FA
:10130000A9F0862B8C9376950F5F1F4F083011053F
:10131000D1F6C3942F5F3F4F86E0C812CACF4A5F11
:101320005F4F5093A9034093A803A8CFF0948F2157
:10133000E9CF9091B003982329F49091B1039823B9
:1013400081E009F480E0089580E00C94ED031092B0
:10135000B4031092B3031092AB031092AA030C943F
:10136000FC06089590E080E008950C940B13FB01B7
:1013700001900020E9F73197AF01461B570BDC01C4
:10138000ED91FC910280F381E02D09948F929F9260
:10139000AF92BF92EF92FF920F931F93CF93DF9381
:1013A000CDB7DEB7A1970FB6F894DEBF0FBECDBFA5
:1013B0007C01FA01CB0119A2223008F42AE08E0147
:1013C0000F5D1F4F822E912CB12CA12CBF01A501C6
:1013D00094010E942113F901CA016A300CF5605D85
:1013E000D8016E938D01232B242B252B79F790E0C8
:1013F00080E0109721F0BD01C7010E94B709A196B6
:101400000FB6F894DEBF0FBECDBFDF91CF911F9115
:101410000F91FF90EF90BF90AF909F908F900895A5
:10142000695CDECF6115710511F00C94B70990E08D
:1014300080E008951F920F920FB60F9211242F9300
:101440003F938F939F93AF93BF938091B6039091F7
:10145000B703A091B803B091B9033091B50323E06D
:10146000230F2D3758F50196A11DB11D2093B5030B
:101470008093B6039093B703A093B803B093B903D6
:101480008091BA039091BB03A091BC03B091BD03BE
:101490000196A11DB11D8093BA039093BB03A09345
:1014A000BC03B093BD03BF91AF919F918F913F91CA
:1014B0002F910F900FBE0F901F90189526E8230FC5
:1014C0000296A11DB11DD2CF1F920F920FB60F929F
:1014D00011248F939F938091E1009091E100937F7D
:1014E0009093E10083FF0FC01092E90091E0909388
:1014F000EB001092EC0092E39093ED001092BF038A
:1015000098E09093F00082FF22C093E09093E9006E
:101510009091F200992319F09AE39093E80090914A
:101520009F03992341F090919F03915090939F03C3
:10153000911101C05D9A9091BE03992341F0909161
:10154000BE0391509093BE03911101C0289A84FF6D
:1015500018C08091E2008E7E81608093E2008091CD
:10156000E1008F7E8093E1008091A0038E7E8061F8
:101570008093A0039F918F910F900FBE0F901F90AB
:10158000189580FFF7CF8091E2008E7E8061809376
:10159000E2008091E1008E7E8093E1008091A003C3
:1015A0008E7E8160E5CF1F920F920FB60F921124AD
:1015B000CF92DF92EF92FF920F931F932F933F935F
:1015C0004F935F936F937F938F939F93AF93BF934B
:1015D000EF93FF93CF93DF93CDB7DEB76C97DEBF6A
:1015E000CDBF1092E9008091E80083FF25C068E03C
:1015F000CE0145960E945B0682EF8093E8008D89BC
:1016000087FF39C09091E80090FFFCCF982F90762B
:1016100009F034C19E894F89588D2F89F88C91111A
:1016200031C0803861F58091A1038093F100109260
:10163000F1008EEF8093E8006C960FB6F894DEBF51
:101640000FBECDBFDF91CF91FF91EF91BF91AF91D1
:101650009F918F917F916F915F914F913F912F91CA
:101660001F910F91FF90EF90DF90CF900F900FBEE2
:101670000F901F9018959EEF9093E800C7CF10929F
:10168000F100D5CF913059F48111D3CF41305105BC
:1016900081F68091A1038D7F8093A103CACF9330FF
:1016A00049F48111C6CF4130510519F68091A1034B
:1016B0008260F2CF953041F48091E80080FFFCCF4A
:1016C00020682093E300B5CF963009F0A9C00B8DB8
:1016D0001C8D22E01092E90010929D0310929C0351
:1016E000F2122EC010929B0310929A030E940907D7
:1016F0001F8299E09983FA8291E09E8390EA98870D
:101700009AEF998720919C0330919D03275F3F4F6B
:101710003C832B838D831092E90010929D031092DD
:101720009C0310939B0300939A0349E050E0BE0191
:101730006F5F7F4F80E00E946F050E94090779CF9D
:1017400010939B0300939A030E949506DC01129666
:101750000D911C910115110509F451C1D801ED91AC
:10176000FC910480F581E02DBE016B5E7F4FC801C6
:101770000995009709F03EC1F80100851185EACF6F
:10178000F3E0FF120EC08F89882309F440C0823035
:1017900061F440E867E080E196E00E94050D811168
:1017A00048CF81E28093EB0047CF813029F440E8B5
:1017B0006BE084E096E0F1CF833099F70E949506C4
:1017C000DC011296ED90FC908E010F5F1F4F6801B7
:1017D000E114F10479F0D701ED91FC910680F781D5
:1017E000E02DB801C7010995080F111DF701E0842C
:1017F000F184EECFD8011C92F60101900020E9F7A8
:101800003197BF016C197D0940E0C601C6CF6EEE6D
:1018100075E0FB01449150E080E80E946F0509CF1C
:10182000973009F4BECF983021F481E08093F10025
:1018300000CF993009F0FDCE837009F0B2CFEEE011
:10184000F1E081E031E096E32191222371F0809371
:10185000E9003093EB00DF0111972C912093EC000D
:101860009093ED008F5F873079F78EE78093EA00E1
:101870001092EA008F898093BF03DBCE8B8D9C8D05
:101880001092E90010929D0310929C0390939B0389
:1018900080939A03898D811192C08E899D89913A96
:1018A00049F4813209F07DCF47E050E065E071E016
:1018B00080E0B3CF913209F074CF833269F48F891D
:1018C000988DB0E0A0E08093000190930101A09377
:1018D0000201B0930301ADCE803269F48091E8003B
:1018E00082FFFCCF67E085E091E00E945B068BEF12
:1018F0008093E8009ECE823209F09BCE8F89809340
:101900000C01EEEFFFE7859194918B3F9C4D51F1D7
:10191000E0E0F8E08091050190910601A0910701B7
:10192000B0910801803B9440A105B105F1F480918C
:101930000C0180FD1AC0EE3F8AE0F80789F587E7C1
:1019400097E7918380838091600080939E0388E174
:101950009BE00FB6F894A895809360000FBE90931B
:10196000600067CEEEEFFAE0D5CF808191818737B6
:10197000974709F05ECEA8958091600088618093BA
:10198000600080919E0380936000EE3F2AE0F207A2
:1019900089F08091FE0A9091FF0A9183808349CE5D
:1019A000808191818737980751F29093FF0A809345
:1019B000FE0AC5CF1092FF0A1092FE0A3ACE0E948C
:1019C0009506DC0112960D911C910115110509F483
:1019D000E8CED801ED91FC910190F081E02DBE019F
:1019E0006B5E7F4FC8010995811123CEF8010085F8
:1019F0001185EBCF181619060CF41BCED2CEF1E0F0
:101A0000FF12BECE62EF75E004CFEF92FF920F930C
:101A10001F93CF93DF93F82E192FE62E042F81E02A
:101A2000860F880F0E94410583E00E944105CF2D5B
:101A3000D12FEC0EFD2EF11CCE15DF05B9F007FFFE
:101A400013C0FE0184910E944105182F80E00E947E
:101A50004105812321968111EFCFDF91CF911F9115
:101A60000F91FF90EF9008958881EDCF81E0F5CF41
:101A7000CF931092C3071092C20788EE93E0A0E0C4
:101A8000B0E08093C4079093C507A093C607B093B6
:101A9000C70786E391E09093C1078093C0078FEF5B
:101AA0009FEF9093CD078093CC0710923A08109245
:101AB000390884E591E09093380880933708809145
:101AC0002F08811113C010922A081092290885E569
:101AD00097E090932C0880932B088FE290E09093EE
:101AE0002E0880932D0881E080932F088091210893
:101AF00081112AC0C1E0C0931408C09315088AE17F
:101B000098E0909317088093160810921908109285
:101B1000180888E491E090931108809310081092BF
:101B20001C0810921B0810921E0810921D08C093EA
:101B30001F08C093200881EC80931A080E94950624
:101B40000E94FC03C0932108E0911B08F0911C083F
:101B5000309739F589E298E090931C0880931B0830
:101B600080911D0890911E0820912D0830912E081B
:101B7000820F931F90931E0880931D0885ED96E0B9
:101B800090934408809343081092480810924708A5
:101B900080E691E09093460880934508CF910895A0
:101BA000FC01808191810097D9F789E298E09183C7
:101BB0008083D6CF789484B5826084BD84B58160FB
:101BC00084BD85B5826085BD85B5816085BD809108
:101BD0006E00816080936E00109281008091810080
:101BE0008260809381008091810081608093810078
:101BF000809180008160809380008091910082605C
:101C000080939100809191008160809391008091F8
:101C100090008160809390008091C10084608093E7
:101C2000C1008091C10082608093C1008091C10099
:101C300081608093C1008091C30081608093C30064
:101C40008091C00082608093C0008091C20081605A
:101C50008093C20080917A00846080937A008091A2
:101C60007A00826080937A0080917A00816080930C
:101C70007A0080917A00806880937A001092BF0386
:101C80001092A1031092A0038091D70081608093ED
:101C9000D70080EA8093D80089B5806189BD89B575
:101CA000826089BD09B400FEFDCF61E070E080E094
:101CB00090E00E940E058091D8008F7C8061809317
:101CC000D8008091E000807F8093E0008091E10067
:101CD0008E7E8093E1008DE08093E200559A209AF9
:101CE00081EC80937C0085B1806F85B984B1877E5B
:101CF00084B984B1876E84B95E9A5F988AB1806D29
:101D00008AB9769A6E9881B3806F81BB899880B3C7
:101D10008D7080BB80E58CBD81E08DBD85E090E05D
:101D20000E9416095F9A85E090E00E9416095E986D
:101D30005C98E8ECF6E085ED96E024912EBD00007D
:101D40000DB407FEFDCF31968E179F07B1F75C9A51
:101D500081E88093640080916500816080936500D4
:101D60000E94A4090E941B0987FF15C05C9885EAA0
:101D70008EBD00000DB407FEFDCF5C9A2E982F9803
:101D80002D988091640080628093640081E083BF1D
:101D9000889513BEFCCF0E941B0982FF48C02D9876
:101DA0000E941B0984788438E1F40E94140988ECAD
:101DB00090E00E9416092F9882E090E00E940B1399
:101DC0008F3F29F06FEF82E090E00E94131384EFC1
:101DD00091E00E9416092F9A0E941B09847884388A
:101DE000D9F30E941B0984718431E1F40E94140923
:101DF00088EC90E00E9416092E9882E090E00E9404
:101E00000B13882329F060E082E090E00E94131316
:101E100084EF91E00E9416092E9A0E941B0984719A
:101E20008431D9F388EC90E00E941609B4CF0E9467
:101E3000140982E090E00E94B509882309F456C095
:101E40003E9A3F9A81E090E00E94B509282F2470C5
:101E5000922E81FF10C021112E98C1EFDFEF08E014
:101E600010E0B8E58B2E0E941B0986FF42C02E9A17
:101E70002F9A0E94140982E390E00E9416090E94A2
:101E80001B098111F8CF85ED96E09093440880936B
:101E9000430881E28093040168EE73E080E090E003
:101EA0000E940E050FE010E05AE0E52EF12C62E0F2
:101EB000C62ED12C4DE0842E912C2FB7F894809112
:101EC000B6039091B703A091B803B091B9032FBFA7
:101ED0002091A403222309F4CDC01092A40380E032
:101EE00090E0892B51F30E940000E4CF3E983F9888
:101EF000A9CF992029F0C430D10511F42E9A2F983A
:101F000081E00E94ED039E01D7FF04C02227332702
:101F10002C1B3D0B27703327CE01D7FD0796A3E07E
:101F200095958795AA95E1F7D7FF05C00197A80178
:101F3000421B530B9A01BC017695762F6627779545
:101F4000679560547C4FF12CE12C3801621A730ABA
:101F50008E3F5FEF950709F43DC08E9CD0018F9CAA
:101F6000B00D112450E040E0A85EB94F5B01E0E8FD
:101F7000AE0EB11C8F3F980791F0FD01E40FF51FE5
:101F8000E4916B01C40ED51EF0E02F01022E01C0BA
:101F9000440C0A94EAF7F60154884528448A21152E
:101FA000310599F0FD01E40FF51FE4916501C40EC0
:101FB000D51EF0E02F01062C02C0559447940A94D8
:101FC000E2F7F60154884528448A4F5F5F4F483551
:101FD000510581F6019660587F4FEA94EF2809F089
:101FE00045C00E94A4098FE090E00E941609219646
:101FF000C931D10509F037CF992011F02F9A2D98CA
:1020000080E991E00E9416090E94140981E090E0A5
:102010000E94B50980FF2FCF8AE090E00E94B509A9
:102020009FEF980F9E3F08F026CF22E330E03093D9
:10203000A9032093A80328E330E03093A70320935B
:10204000A603CBE0D0E0682F85E498E00E94230946
:10205000CE010E94B5092196C131D105A1F70E9498
:10206000A40988EE93E00E94160905CFEE24E394BC
:10207000F12C6ECF2091A503382F321B232F3091E6
:102080000401231748F42F5F231708F028CF81E0BD
:1020900083BF889513BE23CF21E02093A4038093B0
:1020A000A5038091A2039091A30301969093A303AB
:1020B0008093A2038091B1038093B0030E941B0917
:1020C0008093B1038091B3039091B403892BE1F520
:1020D00080E80E949909882341F08091B203882307
:1020E00009F478C081508093B20380E10E9499097D
:1020F000882341F08091B203843008F06DC08F5F77
:102100008093B20388E00E9499098823E9F081E076
:1021100090E09093B4038093B3032FB7F894809129
:10212000B6039091B703A091B803B091B9032FBF44
:102130008093AC039093AD03A093AE03B093AF0331
:102140001092AB031092AA0384E00E9499098111B6
:102150000E94A7098091B3039091B403892B09F4DD
:102160006FC08FB7F8944090B6035090B70360905B
:10217000B8037090B9038FBFE091B303F091B4033B
:102180003197E131F10508F044C0E752FF4E8091EC
:10219000AC039091AD03A091AE03B091AF03A30146
:1021A0009201281B390B4A0B5B0BDA01C9010C9415
:1021B0004313EF107A1189119E11AB11B411C111A3
:1021C000CF11E611F31101120E1225125E127212D6
:1021D0007D128B1284E087CF1092B20393CFC29707
:1021E000A105B105B0F063E887E398E00E9480089C
:1021F00062E787E398E00E948008D092B403C0921F
:10220000B3034092AC035092AD036092AE03709260
:10221000AF038091AC039091AD03A091AE03B09158
:10222000AF0312012301281A390A4A0A5B0A31E373
:10223000231635E733064104510410F00E94A70924
:1022400080E0E0ECF3E081118FEF00248193819333
:10225000819381930394D1F71092A7031092A60360
:102260001092A9031092A80360E871E085E498E059
:102270000E94120A8091B3039091B4031092A903B3
:102280001092A803892B09F053C1F092A703E092A2
:10229000A60365E971E085E498E00E94120A94E1E2
:1022A000A92E91E0B92E512CC2E1D0E0D092A90321
:1022B000C092A803D093A703C093A6038091B20352
:1022C00063EA71E0851511F060E672E085E498E05C
:1022D0000E94120AF501619171915F0185E498E015
:1022E0000E94120A53942896F5E05F12DFCF0E94F5
:1022F000A409F5CD80359105A105B10508F489CF74
:102300000E94FC0683E090E09093B4038093B303B3
:1023100078CFC297A105B10508F47BCFE091B20355
:10232000F0E0EE0FFF1FE85DFE4F6081718187E3F3
:1023300098E00E94120A84E090E0E6CFC297A105DF
:10234000B10508F466CF60EB87E398E00E94FE08D1
:1023500085E090E0D9CF803D9740A105B10508F414
:1023600058CF86E090E0D0CFC297A105B10508F420
:1023700050CF6DE687E398E00E94800887E090E008
:10238000C3CF80359105A105B10508F442CF6DE6B4
:1023900087E398E00E942A0888E090E0B5CF843F68
:1023A0009140A105B10508F434CF63E887E398E0D4
:1023B0000E94800862E787E398E00E94800849E075
:1023C00050E05093B4034093B3031BCF8035910585
:1023D000A105B10508F41DCF0E94FC06F092B403DC
:1023E000E092B3030ECFC297A105B10508F411CF57
:1023F00068E671E087E398E00E94120A4BE050E043
:10240000E0CFC297A105B10508F403CF60EB87E3E5
:1024100098E00E94FE084CE050E0D3CF803D97400A
:10242000A105B10508F4F5CE9092B4038092B303F0
:102430004092AC035092AD036092AE037092AF0332
:102440001092AB031092AA03E4CEC297A105B10586
:1024500008F4DFCEE091B203F0E0EE0FFF1FE25E82
:10246000FE4F6081718187E398E00E94120A4091DB
:10247000AA035091AB034F5F5F4F70E060E02AE02A
:1024800087E398E00E94C60960E771E087E398E07F
:102490000E94B7098091AA039091AB030196909393
:1024A000AB038093AA034EE050E0873E934008F0D0
:1024B00088CF9092B4038092B303A3CEC297A105B4
:1024C000B10508F4A6CE60E887E398E00E94800892
:1024D00063E787E398E00E9480081093B4030093B9
:1024E000B3038FCE80359105A105B10508F491CED7
:1024F0000E94FC0640E150E064CFC297A105B105FF
:1025000008F487CE63E771E087E398E00E94120A3F
:1025100041E150E056CFC297A105B10508F479CE4C
:1025200060EB87E398E00E94FE080E94A70971CE45
:102530001093A7030093A60360E672E085E498E099
:102540000E94120AE091B203F0E0EE0FFF1FEC5E72
:10255000FE4F6081718185E498E00E94120A10921A
:10256000A9031092A8032EE130E03093A703209333
:10257000A60365EA71E085E498E00E94120AE09102
:10258000B303F091B40331976DED71E0ED30F105D7
:1025900098F4E353FD4E0C944313DA12DA12DA1274
:1025A000DA12DA12F112F112F412F412F412F41235
:1025B000F412F7126CEA71E085E498E00E94120AC6
:1025C0001092A9031092A80342E350E05093A7038E
:1025D0004093A60368EE71E085E498E00E94120A39
:1025E00086CE6AEB71E0E8CF66EC71E0E5CF61ED95
:1025F00071E085E498E00E94120A4091AA0350918C
:10260000AB0370E060E02AE085E498E00E94C60930
:1026100068ED71E0D1CFF999FECF92BD81BDF89AF6
:10262000992780B50895262FF999FECF1FBA92BD3C
:1026300081BD20BD0FB6F894FA9AF99A0FBE0196A3
:102640000895A1E21A2EAA1BBB1BFD010DC0AA1FF3
:10265000BB1FEE1FFF1FA217B307E407F50720F00B
:10266000A21BB30BE40BF50B661F771F881F991F86
:102670001A9469F760957095809590959B01AC01CF
:10268000BD01CF010895EE0FFF1F0590F491E02DDD
:062690000994F894FFCF4D
:10269600FFFFFFFF1000E100000000000000C18006
:1026A60081000000EF01FA010A021A0224022C023C
:1026B6003E024C025C0262027002A902E2021B03A5
:1026C6005403000000006C044506A6058204CF04EE
:1026D6008D04AB04000000003A07B30778075D07D6
:1026E60000000000FE08FE07B209B1090000000064
:1026F60023096806B209B1096E6F746570616400DA
:102706000D0A007269636B726F6C6C2E74787400BC
:1027160044616E67657220636F6D707574657220B3
:1027260076332E310053656C656374207669646573
:102736006F3A003E00537465703A2000312F352001
:102746002D2042726F7773657200322F35202D204F
:10275600536F756E6400332F35202D2054657874C1
:1027660000342F35202D20002F39393900352F35EB
:10277600202D205361766500423A53544F50003164
:102786002E5269636B526F6C6C00322E436172611C
:102796006D656C2064616E636500332E426F672041
:1027A60076736520766964697400342E536B72699A
:1027B6006D657200352E567A6C6F6D00566173200A
:1027C6007A6172696B726F6C696C692120005A615B
:1027D60073686B766172656E21212100426F6720F6
:1027E600767365207669646974212000424F4F2113
:1027F6002000567A6C6F6D207A686F706921200010
:10280600687474703A2F2F7275747562652E7275BE
:102816002F766964656F2F663362363135646231AF
:1028260033353238376136343538343733376536F1
:10283600363465316534622F00687474703A2F2F10
:102846007275747562652E72752F766964656F2F61
:1028560035383762643662663134326264366630E1
:1028660032366231326339616365373838613661D1
:102876002F00687474703A2F2F7275747562652E06
:1028860072752F766964656F2F6563306430666292
:10289600646439383136663866663338666633308E
:1028A6006533623963333134332F00687474703A98
:1028B6002F2F7275747562652E72752F7669646531
:1028C6006F2F313362396161336663663639343569
:1028D60066306564626662373835633531376364FE
:1028E60035632F00687474703A2F2F727574756291
:1028F600652E72752F766964656F2F3562313833B0
:1029060031363231323661623638323835313462F8
:0E29160039386164653630306163612F00002E
:00000001FF
